S0150000736B657463685F6175673031612E737265632F
S11300000C945E000C9486000C9486000C9486007C
S11300100C9486000C9486000C9486000C94860044
S11300200C9486000C9486000C9486000C94860034
S11300300C9486000C9429040C9486000C9486007D
S11300400C946D090C9486000C94FE060C943007F5
S11300500C9486000C9486000C9486000C94860004
S11300600C9486000C948600000000080002010035
S1130070000304070000000000000000010204085F
S113008010204080010204081020010204081020FE
S1130090040404040404040402020202020203032A
S11300A00303030300000000250028002B000000C8
S11300B00000240027002A008202600711241FBECA
S11300C0CFEFD8E0DEBFCDBF11E0A0E0B1E0E2EABF
S11300D0FCE102C005900D92AA35B107D9F722E0E0
S11300E0AAE5B1E001C01D92A533B207E1F710E023
S11300F0CEE5D0E004C02197FE010E946F0CCC3500
S1130100D107C9F70E948E070C944F0E0C9400007F
S11301108F929F92AF92BF92CF92DF92EF92FF9213
S1130120CF93DF938EE00E945E0ABC01990F880B87
S1130130990B0E943105609362017093630180936F
S113014064019093650120916C0130916D01490126
S1130150330FAA08BB08C0905A01D0905B01E0900D
S11301605C01F0905D018C149D04AE04BF0474F036
S113017010926D0110926C0120916A0130916B0113
S11301802F5F3F4F30936B0120936A0140916C01C4
S113019050916D019A01220F331F220F331FE091FA
S11301A06601F0916701E20FF31F6083718382831C
S11301B09383CA01019690936D0180936C016091C1
S11301C0680170916901EB012196D0936901C09394
S11301D0680120915E0130915F014091600150916E
S11301E06101609162017091630180916401909159
S11301F065010E9451046B017C0160935E01709360
S11302005F018093600190936101BE01DD0F880B53
S1130210990B0E9431059B01AC01C701B6010E94F4
S1130220BD044B015C018EE691E00E943C0340E07A
S113023060E08EE691E00E9443036BE071E08EE69D
S113024091E00E94DC0741E060E08EE691E00E94CC
S113025043032AE939E94CE453E460916201709163
S1130260630180916401909165010E94BD04AB011A
S1130270BC0122E030E08EE691E00E946B0940E090
S113028064E08EE691E00E9443036FE071E08EE645
S113029091E00E94DC0741E065E08EE691E00E9477
S11302A0430360916A0170916B014AE050E08EE66D
S11302B091E00E94890840E068E08EE691E00E94A7
S11302C0430363E171E08EE691E00E94DC0741E0C4
S11302D067E08EE691E00E9443032AE939E94CE4A1
S11302E053E4C701B6010E94BD04AB01BC0122E086
S11302F030E08EE691E00E946B0940E06DE08EE60E
S113030091E00E94430368E171E08EE691E00E946F
S1130310DC0741E06DE08EE691E00E9443032AE9A8
S113032039E94CE453E4C501B4010E94BD04AB01B6
S1130330BC0122E030E08EE691E00E946B098EE67B
S113034091E00E94560380E1809381001092800026
S113035085E0809388018FEF9FEF90938A018093CB
S11303608901909387008093860085E180938100C2
S1130370DF91CF91FF90EF90DF90CF90BF90AF903F
S11303809F908F900895CF92DF92EF92FF928EE02C
S11303900E945E0ABC01990F880B990B0E940F0BF7
S11303A023E330E040E050E064E170E080E090E07E
S11303B00E94310B60935A0170935B0180935C013E
S11303C090935D0120E042E060E18EE691E00E94BE
S11303D05E03C0905A01D0905B01E0905C01F09004
S11303E05D01C601880F991F880F991F0E94840C14
S11303F08093660190936701FC0180E090E0DC014A
S11304008C159D05AE05BF0544F41192119211920D
S113041011920196A11DB11DF3CF26E040E855E2EB
S113042060E070E08BE891E00E94990685E080939B
S113043088018FEF9FEF90938A01809389019093B5
S113044087008093860085E18093810088E890E0AE
S1130450909387018093860181E080936F00FF90E1
S1130460EF90DF90CF9008958EE691E00E943C03D8
S113047040E060E08EE691E00E9443036CE171E0AD
S11304808EE691E00E94DC0741E063E08EE691E0B5
S11304900E94430360916C0170916D014AE050E049
S11304A08EE691E00E9489088EE691E00E94560350
S11304B040E068E08EE691E00E94430364E271E06C
S11304C08EE691E00E94DC0741E06BE08EE691E06D
S11304D00E94430340915A0150915B0160915C0179
S11304E070915D012AE030E08EE691E00E944108BF
S11304F08EE691E00E94560360E177E280E090E0AE
S11305000C94DC09CF92EF920F9382E0C82E93E013
S1130510E92E04E025E046E067E08EE691E00E94E3
S113052003040F91EF90CF90089580E090E0089538
S11305300895CF93DF93EC0160E08E810E94E00A7E
S113054081E090E00E94180A61E08E810E94E00A36
S113055081E090E00E94180A60E08E810E94E00A27
S113056084E690E0DF91CF910C94180ACF92DF9249
S1130570EF92FF920F931F93CF93DF936C017C0153
S113058087E0E80EF11CC0E0D0E0062F10E0B801CF
S11305900C2E02C0759567950A94E2F76170F70115
S11305A081917F010E94E00A2196C430D10579F738
S11305B0C601DF91CF911F910F91FF90EF90DF90D3
S11305C0CF900C949902CF92DF92EF92FF920F9307
S11305D01F93CF93DF936C017C0187E0E80EF11C3D
S11305E0C0E0D0E0062F10E0B8010C2E02C07595D3
S11305F067950A94E2F76170F70181917F010E9487
S1130600E00A2196C830D10579F7C601DF91CF9170
S11306101F910F91FF90EF90DF90CF900C9499026F
S11306201F93CF93DF93EC01162F642F8C810E94CC
S1130630E00A8D818F3F19F060E00E94E00A8F8507
S1130640612F84FF06C0CE01DF91CF911F910C94DE
S1130650E30270E084E0759567958A95E1F7CE0131
S11306600E94B602612FCE01DF91CF911F910C94AD
S1130670B60240E00C94100361E00E94390380ED5F
S113068097E00C94180AFC01443008F043E0838995
S1130690481710F04FEF480FDF01A40FB11D549617
S11306A09C91690F6068CF010C943903FC01608947
S11306B0262F2460208B6C600C943903EF92FF92F8
S11306C00F931F93CF93DF93EC01423018F08F8583
S11306D088608F874B8B1C8A80E48D8B6E8B70E0D7
S11306E0605C7F4F6F8B222329F0413019F48F8592
S11306F084608F8761E08C810E94A40A8D818F3F82
S113070019F061E00E94A40A61E08E810E94A40AAB
S11307107E0187E0E80EF11C00E010E08F8584FD87
S113072003C084E090E002C088E090E00817190755
S11307304CF461E0F70181917F010E94A40A0F5FEC
S11307401F4FECCF80E593EC0E94180A60E08C8187
S11307500E94E00A60E08E810E94E00A8D818F3F52
S113076019F060E00E94E00A6F8564FD1DC063E03B
S1130770CE010E94B60284E991E10E94180A63E066
S1130780CE010E94B60284E991E10E94180A63E056
S1130790CE010E94B60286E990E00E94180A62E047
S11307A0CE010E94B60216C06062CE010E943903D7
S11307B084E991E10E94180A6F856062CE010E946B
S11307C0390386E990E00E94180A6F856062CE01C1
S11307D00E9439036F856062CE010E94390384E070
S11307E0888BCE010E945603CE010E943C0382E016
S11307F0898B66E0CE01DF91CF911F910F91FF901D
S1130800EF900C943903CF92EF920F93FC01138273
S1130810128280E391E09183808364838FEF8583E8
S1130820468327830087E186C2861386148615864D
S11308301686178620E041E060E1CF010F91EF902A
S1130840CF900C945E0341E00E94100381E090E09D
S113085008951F920F920FB60F9211242F933F9376
S11308604F935F936F937F938F939F93AF93BF93B4
S1130870EF93FF93E0918601F09187010995FF9131
S1130880EF91BF91AF919F918F917F916F915F9104
S11308904F913F912F910F900FBE0F901F9018957D
S11308A05058BB27AA270E9468040C9483050E9411
S11308B0750538F00E947C0520F039F49F3F19F447
S11308C026F40C9472050EF4E095E7FB0C946C0589
S11308D0E92F0E94940558F3BA1762077307840737
S11308E0950720F079F4A6F50C94B6050EF4E0957E
S11308F00B2EBA2FA02D0B01B90190010C01CA01D6
S1130900A0011124FF27591B99F0593F50F4503E80
S113091068F11A16F040A22F232F342F4427585F72
S1130920F3CF469537952795A795F0405395C9F78A
S11309307EF41F16BA0B620B730B840BBAF0915042
S1130940A1F0FF0FBB1F661F771F881FC2F70EC0E1
S1130950BA0F621F731F841F48F4879577956795B4
S1130960B795F7959E3F08F0B0CF9395880F08F0A0
S11309709927EE0F9795879508950E94D1040C94BA
S113098083050E947C0558F00E94750540F029F407
S11309905F3F29F00C946C0551110C94B7050C942D
S11309A072050E94940568F39923B1F3552391F3DA
S11309B0951B550BBB27AA2762177307840738F0CA
S11309C09F5F5F4F220F331F441FAA1FA9F335D027
S11309D00E2E3AF0E0E832D091505040E695001CDB
S11309E0CAF72BD0FE2F29D0660F771F881FBB1F95
S11309F0261737074807AB07B0E809F0BB0B802D73
S1130A00BF01FF2793585F4F3AF09E3F510578F09E
S1130A100C946C050C94B7055F3FE4F3983ED4F353
S1130A20869577956795B795F7959F5FC9F7880F72
S1130A30911D9695879597F90895E1E0660F771FC4
S1130A40881FBB1F621773078407BA0720F0621B55
S1130A50730B840BBA0BEE1F88F7E0950895E894A6
S1130A6009C097FB3EF490958095709561957F4FF2
S1130A708F4F9F4F9923A9F0F92F96E9BB279395A0
S1130A80F695879577956795B795F111F8CFFAF4B0
S1130A90BB0F11F460FF1BC06F5F7F4F8F4F9F4FE1
S1130AA016C0882311F096E911C0772321F09EE83F
S1130AB0872F762F05C0662371F096E8862F70E0A5
S1130AC060E02AF09A95660F771F881FDAF7880F7F
S1130AD09695879597F9089597F99F6780E870E050
S1130AE060E008959FEF80EC089500240A941616A0
S1130AF0170618060906089500240A941216130608
S1130B00140605060895092E0394000C11F4882395
S1130B1052F0BB0F40F4BF2B11F460FF04C06F5FB1
S1130B207F4F8F4F9F4F089557FD9058440F551F87
S1130B3059F05F3F71F04795880F97FB991F61F05B
S1130B409F3F79F087950895121613061406551FD2
S1130B50F2CF4695F1DF08C0161617061806991F3E
S1130B60F1CF86957105610508940895E894BB2733
S1130B7066277727CB0197F90895FC01918D228D83
S1130B80892F90E0805C9F4F821B91098F73992776
S1130B900895FC01918D828D981731F0828DE80FB4
S1130BA0F11D858D90E008958FEF9FEF0895FC016E
S1130BB0918D828D981761F0828DDF01A80FB11D90
S1130BC05D968C91928D9F5F9F73928F90E00895B4
S1130BD08FEF9FEF0895FC01538D448D252F30E056
S1130BE0842F90E0821B930B541710F0CF96089536
S1130BF00197089586E597E0892B49F080E090E01D
S1130C00892B29F00E94560781110C940000089545
S1130C10FC01848DDF01A80FB11DA35ABF4F2C9195
S1130C20848D90E001968F739927848FA689B78964
S1130C302C93A089B1898C91837080648C93938D5B
S1130C40848D981306C00288F389E02D80818F7DFE
S1130C5080830895EF92FF920F931F93CF93DF93B6
S1130C60EC0181E0888F9B8D8C8D981305C0E889F9
S1130C70F989808185FD26C0F62E0B8D10E00F5F6B
S1130C801F4F0F731127E02E8C8DE8120CC00FB686
S1130C9007FCFACFE889F989808185FFF5CFCE0179
S1130CA00E940806F1CF8B8DFE01E80FF11DE35A77
S1130CB0FF4FF0829FB7F8940B8FEA89FB898081FC
S1130CC080620AC09FB7F894EE89FF896083E8893F
S1130CD0F98980818370806480839FBF81E090E084
S1130CE0DF91CF911F910F91FF90EF900895CF93D3
S1130CF0DF93EC01888D8823C9F0EA89FB89808120
S1130D0085FD05C0A889B9898C9186FD0FC00FB6F1
S1130D1007FCF5CF808185FFF2CFA889B9898C9132
S1130D2085FFEDCFCE010E940806E7CFDF91CF917A
S1130D300895CF92DF92EF92FF921F93CF93DF93A8
S1130D40EC016A017B01122FE889F98982E0808332
S1130D504115514E61057105B1F060E079E08DE314
S1130D6090E0A70196010E94230CDA01C9010197C2
S1130D70A109B109B695A795979587959C01211569
S1130D8080E13807A8F0E889F989108260E874E8FE
S1130D908EE190E0A70196010E94230CDA01C901BB
S1130DA00197A109B109B695A795979587959C01D7
S1130DB0EC85FD853083EE85FF852083188EEC89D4
S1130DC0FD891083EA89FB89808180618083EA89B7
S1130DD0FB89808188608083EA89FB8980818068BF
S1130DE08083EA89FB8980818F7D8083DF91CF9125
S1130DF01F91FF90EF90DF90CF9008951F920F9274
S1130E000FB60F9211242F938F939F93EF93FF9319
S1130E10E0919B01F0919C018081E091A101F0910E
S1130E20A20182FD12C090818091A4018F5F8F7313
S1130E302091A501821751F0E091A401F0E0E5575B
S1130E40FE4F958F8093A40101C08081FF91EF91A3
S1130E509F918F912F910F900FBE0F901F90189517
S1130E601F920F920FB60F9211242F933F934F931B
S1130E705F936F937F938F939F93AF93BF93EF93FE
S1130E80FF938BE891E00E940806FF91EF91BF91D8
S1130E90AF919F918F917F916F915F914F913F910E
S1130EA02F910F900FBE0F901F9018958BE891E033
S1130EB00E94BD0521E0892B09F420E0822F0895CA
S1130EC0EBE8F1E01382128288EE93E0A0E0B0E058
S1130ED084839583A683B7838CE391E09183808395
S1130EE085EC90E09587848784EC90E097878687EB
S1130EF080EC90E0918B808B81EC90E0938B828BE3
S1130F0082EC90E0958B848B86EC90E0978B868BBB
S1130F10118E128E138E148E089508950E94230A42
S1130F200E948D070E94C301CAEFD5E00E943402DB
S1130F302097E1F30E94FA05F9CFCF92DF92EF9266
S1130F40FF920F931F93CF93DF936C017A018B0170
S1130F50C0E0D0E0CE15DF0581F0D8016D918D01A0
S1130F60D601ED91FC910190F081E02DC601099527
S1130F70892B11F02196EECF7E01C701DF91CF912D
S1130F801F910F91FF90EF90DF90CF90089561151E
S1130F90710579F0FB0101900020E9F73197AF0169
S1130FA0461B570BDC01ED91FC910280F381E02D8F
S1130FB0099480E090E008950C94C707DC01ED915A
S1130FC0FC910190F081E02D09948F929F92AF9251
S1130FD0BF92EF92FF920F931F93CF93DF93CDB7FE
S1130FE0DEB7A1970FB6F894DEBF0FBECDBF7C016C
S1130FF0FA01CB0119A2223008F42AE08E010F5D18
S11310001F4F822E912CA12CB12CBF01A50194015C
S11310100E94230CF901CA01015011096A3010F42D
S1131020605D01C0695CD8016C93232B242B252BB4
S113103061F7B801C7010E94C707A1960FB6F894DB
S1131040DEBF0FBECDBFDF91CF911F910F91FF90F7
S1131050EF90BF90AF909F908F9008952115310528
S113106041F4DC01ED91FC910190F081E02D642FBD
S113107009940C94E5079A01AB0160E070E00C94CC
S11310802E08CF92DF92EF92FF920F931F93CF938C
S1131090DF932115310581F4DC01ED91FC91019080
S11310A0F081E02D642FDF91CF911F910F91FF907C
S11310B0EF90DF90CF9009942A30310501F577FF46
S11310C01DC06A017B01EC016DE20E94DE078C0108
S11310D044275527BA014C195D096E097F092AE096
S11310E0CE010E94E507800F911FDF91CF911F91E0
S11310F00F91FF90EF90DF90CF9008952AE0DF9159
S1131100CF911F910F91FF90EF90DF90CF900C94AF
S1131110E5079A01AB01770F660B770B0C94410836
S11311207F928F929F92AF92BF92CF92DF92EF9273
S1131130FF920F931F93CF93DF938C016A017B017E
S1131140722E9A01AB01C701B6010E941E0C8823BE
S113115019F06DE471E027C046015701E894B7F82F
S11311602FEF3FEF4FE75FE7C501B4010E941E0C6C
S113117081110DC02FEF3FEF4FE75FE7C501B401C9
S11311800E94540B18161CF461E571E00CC02FEF9B
S11311903FEF4FE75FE4C701B6010E94AC0B18169E
S11311A094F465E571E0C801DF91CF911F910F912F
S11311B0FF90EF90DF90CF90BF90AF909F908F9073
S11311C07F900C94C7072FEF3FEF4FE75FECC70109
S11311D0B6010E94540B87FDE4CF20E030E0A90162
S11311E0C701B6010E94540B87FF0AC06DE2C80113
S11311F00E94DE07EC01F7FAF094F7F8F09402C0CD
S1131200C0E0D0E0B12C60E070E080E09FE37B14AC
S113121041F020E030E040E251E40E94BD04B39488
S1131220F6CFA70196010E9451046B017C010E9434
S1131230590B4B015C012AE0AB01BC01C8010E94BF
S1131240E507C80FD91F7720B9F1C501B4010E9481
S11312502F059B01AC01C701B6010E9450046B012C
S11312607C016EE2C8010E94DE07C80FD91F20E08E
S113127030E040E251E4C701B6010E94B10B4B01DA
S11312805C010E94590B6B017C014AE050E0C801EB
S11312900E943B08C80FD91FB60180E090E00E946D
S11312A02F059B01AC01C501B4010E9450046B01E0
S11312B07C017A947110DBCFCE01DF91CF911F9125
S11312C00F91FF90EF90DF90CF90BF90AF909F90E1
S11312D08F907F9008950C9490081F920F920FB6F0
S11312E00F9211242F933F938F939F93AF93BF93A8
S11312F08091290290912A02A0912B02B0912C0294
S11313003091280223E0230F2D3720F40196A11DEC
S1131310B11D05C026E8230F0296A11DB11D20931F
S113132028028093290290932A02A0932B02B0935F
S11313302C0280912D0290912E02A0912F02B09147
S113134030020196A11DB11D80932D0290932E02AF
S1131350A0932F02B0933002BF91AF919F918F91D0
S11313603F912F910F900FBE0F901F9018953FB78C
S1131370F89480912D0290912E02A0912F02B091A9
S1131380300226B5A89B05C02F3F19F00196A11D78
S1131390B11D3FBFBA2FA92F982F8827820F911D07
S11313A0A11DB11DBC01CD0142E0660F771F881F4E
S11313B0991F4A95D1F708958F929F92AF92BF9249
S11313C0CF92DF92EF92FF926B017C010E94B709EA
S11313D04B015C01C114D104E104F10401F10E9448
S11313E0530B0E94B709DC01CB0188199909AA099A
S11313F0BB09883E9340A105B10560F321E0C21A00
S1131400D108E108F10888EE880E83E0981EA11C3B
S1131410B11CC114D104E104F10419F7DBCFFF902E
S1131420EF90DF90CF90BF90AF909F908F900895F2
S11314308230910538F0880F991F880F991F0597FE
S11314400197F1F70895789484B5826084BD84B5DA
S1131450816084BD85B5826085BD85B5816085BDAB
S1131460EEE6F0E0808181608083E1E8F0E01082C4
S1131470808182608083808181608083E0E8F0E005
S1131480808181608083E1EBF0E0808184608083EF
S1131490E0EBF0E0808181608083EAE7F0E0808126
S11314A08460808380818260808380818160808386
S11314B08081806880831092C10008958E3008F086
S11314C08E5020910A0190E4299F90011124877085
S11314D0822B80937C0080917A00806480937A00D0
S11314E080917A0086FDFCCF80917800209179006C
S11314F090E0922B0895833081F028F4813099F0A4
S11315008230A1F008958730A9F08830B9F0843092
S1131510D1F4809180008F7D03C0809180008F770B
S113152080938000089584B58F7702C084B58F7D41
S113153084BD08958091B0008F7703C08091B0007E
S11315408F7D8093B0000895CF93DF9390E0FC01EA
S1131550E458FF4F2491FC01E057FF4F8491882306
S113156061F190E0880F991FFC01E255FF4FC5918E
S1131570D491FC01EC55FF4FA591B491611109C0C0
S11315809FB7F8948881209582238883EC912E2339
S11315900BC0623061F49FB7F8948881322F309584
S11315A083238883EC912E2B2C939FBF06C08FB787
S11315B0F894E8812E2B28838FBFDF91CF91089573
S11315C01F93CF93DF93282F30E0F901E859FF4FA1
S11315D08491F901E458FF4FD491F901E057FF4F8A
S11315E0C491CC23C1F0162F81110E947B0AEC2FE9
S11315F0F0E0EE0FFF1FEC55FF4FA591B4919FB79C
S1131600F894111104C08C91D095D82302C0EC91A8
S1131610DE2BDC939FBFDF91CF911F91089561155D
S113162071058105910511F00C943E0E0895CF9239
S1131630DF92EF92FF92611571058105910549F0E2
S11316406B017C010E94F00DA70196010E94450CDC
S113165003C060E070E0CB01FF90EF90DF90CF908B
S11316600895CF92DF92EF92FF920F931F93621728
S113167073078407950784F489019A016B017C013F
S1131680C901B8016C197D098E099F090E94170BC5
S11316906C0D7D1D8E1D9F1D1F910F91FF90EF906E
S11316A0DF90CF90089508950E94880B08F481E09C
S11316B008950E949C0588F09F5798F0B92F9927A8
S11316C0B751B0F0E1F0660F771F881F991F1AF029
S11316D0BA95C9F714C0B13091F00E94B605B1E0D3
S11316E008950C94B605672F782F8827B85F39F0D2
S11316F0B93FCCF3869577956795B395D9F73EF4C2
S113170090958095709561957F4F8F4F9F4F089569
S1131710990F0008550FAA0BE0E8FEEF16161706FE
S1131720E807F907C0F012161306E407F50798F066
S1131730621B730B840B950B39F40A2661F0232B7F
S1131740242B252B21F408950A2609F4A140A695FB
S11317508FEF811D811D08950E94880B08F48FEF7F
S113176008950E94C40B0C9483050E94750538F0FB
S11317700E947C0520F0952311F00C946C050C94C8
S1131780720511240C94B7050E94940570F3959F7B
S1131790C1F3950F50E0551F629FF001729FBB2764
S11317A0F00DB11D639FAA27F00DB11DAA1F649F00
S11317B06627B00DA11D661F829F2227B00DA11DB3
S11317C0621F739FB00DA11D621F839FA00D611D39
S11317D0221F749F3327A00D611D231F849F600D5A
S11317E0211D822F762F6A2F11249F5750409AF083
S11317F0F1F088234AF0EE0FFF1FBB1F661F771F0F
S1131800881F91505040A9F79E3F510580F00C94D9
S11318106C050C94B7055F3FE4F3983ED4F38695CA
S113182077956795B795F795E7959F5FC1F7FE2B79
S1131830880F911D9695879597F908950E94880BB6
S1131840880B990B0895A1E21A2EAA1BBB1BFD015C
S11318500DC0AA1FBB1FEE1FFF1FA217B307E4078B
S1131860F50720F0A21BB30BE40BF50B661F771FE3
S1131870881F991F1A9469F76095709580959095C3
S11318809B01AC01BD01CF010895052E97FB1EF409
S113189000940E945C0C57FD07D00E94230C07FCA7
S11318A003D04EF40C945C0C5095409530952195E2
S11318B03F4F4F4F5F4F0895909580957095619578
S11318C07F4F8F4F9F4F08950E94750CA59F900DD9
S11318D0B49F900DA49F800D911D11240895EE0FC7
S11318E0FF1F0590F491E02D0994A29FB001B39FCE
S11318F0C001A39F700D811D1124911DB29F700D15
S1131900811D1124911D08950F931F93CF93DF938D
S11319108230910510F482E090E0E0913302F0917E
S1131920340220E030E0A0E0B0E0309719F14081CB
S113193051810281138148175907C8F0841795070C
S113194069F4109731F012960C93129713961C9326
S113195027C0009333021093340222C021153105AD
S113196019F04217530718F49A01BD01EF01DF0182
S1131970F801DBCF21153105F9F0281B390B243090
S1131980310580F48A819B816115710521F0FB0189
S11319909383828304C09093340280933302FE01C4
S11319A0329644C0FE01E20FF31F819391932250BB
S11319B03109398328833AC02091310230913202AF
S11319C0232B41F420910201309103013093320220
S11319D0209331022091000130910101211531053C
S11319E041F42DB73EB74091040150910501241BE9
S11319F0350BE0913102F0913202E217F307A0F4C3
S1131A002E1B3F0B2817390778F0AC014E5F5F4F50
S1131A102417350748F04E0F5F1F5093320240934E
S1131A2031028193919302C0E0E0F0E0CF01DF91B5
S1131A30CF911F910F910895CF93DF93009709F4ED
S1131A4081C0FC01329713821282A0913302B091BB
S1131A503402109781F420813181820F931F2091E9
S1131A603102309132022817390751F5F0933202CE
S1131A70E093310267C0ED0120E030E0CE17DF07CC
S1131A8040F44A815B819E0141155105F1F0EA0160
S1131A90F5CFD383C28340815181840F951FC8172A
S1131AA0D90759F488819981840F951F02969183EF
S1131AB080838A819B81938382832115310529F454
S1131AC0F0933402E09333023DC0E901FB83EA83DF
S1131AD049915991C40FD51FEC17FD0761F480811A
S1131AE09181840F951F0296E901998388838281ED
S1131AF093819B838A83E0E0F0E012968D919C9120
S1131B001397009719F0FD01DC01F7CF8D919C919B
S1131B1011979D012E5F3F4F820F931F2091310239
S1131B20309132022817390769F4309729F410925A
S1131B3034021092330202C013821282B093320232
S1131B40A0933102DF91CF9108958F929F92AF922B
S1131B50BF92CF92DF92EF92FF92CF93DF93EC018B
S1131B60688179818A819B8161157105810591055F
S1131B7021F464E279ED8BE597E02DE133EF41E068
S1131B8050E00E94450C49015A019B01AC01A7EAAF
S1131B90B1E40E94640C6B017C01ACEEB4EFA501CE
S1131BA094010E944A0EDC01CB018C0D9D1DAE1DDB
S1131BB0BF1DB7FF03C00197A109B048888399836B
S1131BC0AA83BB83BC01CD019F77DF91CF91FF90A6
S1131BD0EF90DF90CF90BF90AF909F908F9008953B
S1131BE08F929F92AF92BF92CF92DF92EF92FF9229
S1131BF0609106017091070180910801909109019B
S1131C00611571058105910521F464E279ED8BE597
S1131C1097E02DE133EF41E050E00E94450C49018B
S1131C205A019B01AC01A7EAB1E40E94640C6B0168
S1131C307C01ACEEB4EFA50194010E944A0EDC01D4
S1131C40CB018C0D9D1DAE1DBF1DB7FF03C00197B9
S1131C50A109B0488093060190930701A09308015D
S1131C60B0930901BC01CD019F77FF90EF90DF9005
S1131C70CF90BF90AF909F908F900895609306018E
S1131C807093070180930801909309010895B7FFA9
S1131C900C94640C0E94640C821B930B0895F894BA
S1051CA0FFCF70
S1131CA2000035022000010000000156414C00539F
S1131CB24F4200534F4D41004D454400515F4C4942
S1131CC2444F5300545F5665746F72000000000065
S1131CD223049D0795029802000000002A069D072E
S1131CE2EB057706BD05D705C9050D0A006E616EC1
S10D1CF200696E66006F766600005C
S9030000FC
