:100000000C945D000C9485000C9485000C94850084
:100010000C9485000C9485000C9485000C9485004C
:100020000C9485000C9485000C9485000C9485003C
:100030000C9485000C946F040C9485000C9485003E
:100040000C9419080C9485000C9485000C94850080
:100050000C9485000C9485000C9485000C9485000C
:100060000C9485000C94850000000008000201003B
:100070000003040700000000000000000102040863
:100080001020408001020408102001020408102002
:10009000040404040404040402020202020203032E
:1000A0000303030300000000250028002B000000CC
:1000B0000000240027002A00C80211241FBECFEF31
:1000C000D8E0DEBFCDBF11E0A0E0B1E0ECEFFAE197
:1000D00002C005900D92AC34B107D9F721E0ACE431
:1000E000B1E001C01D92A239B207E1F710E0CDE501
:1000F000D0E004C02197FE010E949C0BCC35D107B3
:10010000C9F70E943A060C947C0D0C9400004F92A3
:100110005F926F927F92AF92BF92CF92DF92EF92F7
:10012000FF920F931F93CF93DF9380910C010E9456
:100130000A092C01990F66087708C301B2010E94D1
:10014000AD0560935C0170935D0180935E019093B7
:100150005F011F921F921F928DE78F93FEECAF2ECF
:10016000BB24BA94CB2CDB2CEE24EA9413E0F12EC2
:1001700000E010E020E030E0A901C301B2010E94DC
:100180005E0A0E94AD0560934C0170934D0180930F
:100190004E0190934F0160915C0170915D018091DF
:1001A0005E0190915F010E9475051F921F921F9240
:1001B0002FEF2F93A12CB12C650120E030E0A90195
:1001C0000E945E0A0E94AD05609350017093510138
:1001D00080935201909353010E94750580910A010A
:1001E0000E9427098091660190916701092E000CF9
:1001F000AA0BBB0B2DB73EB7285F3F4F0FB6F89445
:100200003EBF0FBE2DBF40915401509155016091EA
:1002100056017091570184179507A607B7076CF030
:1002200010926701109266018091640190916501BE
:10023000019690936501809364018091660190918D
:10024000670140915C0150915D0160915E01709188
:100250005F019C01220F331F220F331FE0916001C9
:10026000F0916101E20FF31F408351836283738336
:10027000019690936701809366016091620170918D
:100280006301EB012196D0936301C0936201209139
:1002900058013091590140915A0150915B01609190
:1002A0004C0170914D0180914E0190914F010E943F
:1002B00097042B013C01609358017093590180937E
:1002C0005A0190935B01BE01DD0F880B990B0E94D0
:1002D000AD059B01AC01C301B2010E9403056B0196
:1002E0007C0188E691E00E94820340E060E088E6BD
:1002F00091E00E9489036FE071E088E691E00E943E
:10030000880641E061E088E691E00E9489036091FF
:100310006201709163014AE050E088E691E00E943A
:10032000350740E066E088E691E00E94890365E1D8
:1003300071E088E691E00E94880641E065E088E689
:1003400091E00E94890322E030E0B301A20188E637
:1003500091E00E94170840E06CE088E691E00E947E
:1003600089036AE171E088E691E00E94880641E035
:100370006DE088E691E00E94890322E030E0B70159
:10038000A60188E691E00E94170888E691E00E94A5
:100390009C0380E1809381001092800085E080932F
:1003A00082018FEF9FEF909384018093830190935C
:1003B00087008093860085E180938100DF91CF9153
:1003C0001F910F91FF90EF90DF90CF90BF90AF9073
:1003D0007F906F905F904F900895CF92DF92EF9251
:1003E000FF9260E080910C010E94AF098EE00E94B4
:1003F0000A09BC01990F880B990B0E941A0A23E382
:1004000030E040E050E06EE170E080E090E00E947B
:100410003C0A609354017093550180935601909368
:10042000570120E042E060E188E691E00E94A403E9
:10043000C0905401D0905501E0905601F0905701C2
:10044000C601880F991F880F991F0E94B10B8093D6
:10045000600190936101FC0180E090E0DC018C156B
:100460009D05AE05BF0544F41192119211921192AF
:100470000196A11DB11DF3CF85E0809382018FEF1E
:100480009FEF9093840180938301909387008093E2
:10049000860085E18093810087E890E09093810158
:1004A0008093800181E080936F00FF90EF90DF9058
:1004B000CF90089588E691E00E94820340E060E0DA
:1004C00088E691E00E94890360E271E088E691E0AD
:1004D0000E94880641E060E088E691E00E9489037E
:1004E00040914C0150914D0160914E0170914F012E
:1004F00022E030E088E691E00E94170840E065E0E5
:1005000088E691E00E94890365E271E088E691E067
:100510000E94880641E067E088E691E00E94890336
:1005200060916401709165014AE050E088E691E0D5
:100530000E94350788E691E00E949C0340E06BE052
:1005400088E691E00E9489036BE271E088E691E021
:100550000E94880641E06CE088E691E00E948903F1
:10056000409154015091550160915601709157018D
:100570002AE030E088E691E00E94ED0688E691E00E
:100580000E949C0368E97AE380E090E00C9488087C
:10059000CF92EF920F9382E0C82E93E0E92E04E011
:1005A00025E046E067E088E691E00E9449040F916B
:1005B000EF90CF90089580E090E008950895CF9354
:1005C000DF93EC0160E08E810E94EB0981E090E016
:1005D0000E94C40861E08E810E94EB0981E090E0F6
:1005E0000E94C40860E08E810E94EB0984E690E0DE
:1005F000DF91CF910C94C408CF92DF92EF92FF92DB
:100600000F931F93CF93DF936C017C0187E0E80E7B
:10061000F11CC0E0D0E0062F10E0B8010C2E02C0A3
:10062000759567950A94E2F76170F70181917F01F2
:100630000E94EB092196C430D10579F7C601DF91FC
:10064000CF911F910F91FF90EF90DF90CF900C947E
:10065000DF02CF92DF92EF92FF920F931F93CF931F
:10066000DF936C017C0187E0E80EF11CC0E0D0E074
:10067000062F10E0B8010C2E02C0759567950A94FC
:10068000E2F76170F70181917F010E94EB092196E9
:10069000C830D10579F7C601DF91CF911F910F9135
:1006A000FF90EF90DF90CF900C94DF021F93CF93D9
:1006B000DF93EC01162F642F8C810E94EB098D8152
:1006C0008F3F19F060E00E94EB098F85612F84FF56
:1006D00006C0CE01DF91CF911F910C94290370E0E9
:1006E00084E0759567958A95E1F7CE010E94FC023A
:1006F000612FCE01DF91CF911F910C94FC0240E05D
:100700000C94560361E00E947F0380ED97E00C9407
:10071000C408FC01443008F043E08389481710F016
:100720004FEF480FDF01A40FB11D54969C91690F44
:100730006068CF010C947F03FC016089262F246040
:10074000208B6C600C947F03EF92FF920F931F93AA
:10075000CF93DF93EC01423018F08F8588608F874C
:100760004B8B1C8A80E48D8B6E8B70E0605C7F4FBE
:100770006F8B222329F0413019F48F8584608F8795
:1007800061E08C810E94AF098D818F3F19F061E09B
:100790000E94AF0961E08E810E94AF097E0187E06F
:1007A000E80EF11C00E010E08F8584FD03C084E0BA
:1007B00090E002C088E090E0081719074CF461E06F
:1007C000F70181917F010E94AF090F5F1F4FECCFAE
:1007D00080E593EC0E94C40860E08C810E94EB09E4
:1007E00060E08E810E94EB098D818F3F19F060E0FF
:1007F0000E94EB096F8564FD1DC063E0CE010E947D
:10080000FC0284E991E10E94C40863E0CE010E94E9
:10081000FC0284E991E10E94C40863E0CE010E94D9
:10082000FC0286E990E00E94C40862E0CE010E94CA
:10083000FC0216C06062CE010E947F0384E991E150
:100840000E94C4086F856062CE010E947F0386E922
:1008500090E00E94C4086F856062CE010E947F0311
:100860006F856062CE010E947F0384E0888BCE0199
:100870000E949C03CE010E94820382E0898B66E085
:10088000CE01DF91CF911F910F91FF90EF900C94CB
:100890007F03CF92EF920F93FC011382128285E3C4
:1008A00091E09183808364838FEF858346832783E0
:1008B0000087E186C28613861486158616861786FB
:1008C00020E041E060E1CF010F91EF90CF900C94D8
:1008D000A40341E00E94560381E090E008951F9236
:1008E0000F920FB60F9211242F933F934F935F9364
:1008F0006F937F938F939F93AF93BF93EF93FF93E8
:10090000E0918001F09181010995FF91EF91BF91F4
:10091000AF919F918F917F916F915F914F913F9197
:100920002F910F900FBE0F901F9018955058BB2716
:10093000AA270E94AE040C94FF050E94F10538F02E
:100940000E94F80520F039F49F3F19F426F40C9426
:10095000EE050EF4E095E7FB0C94E805E92F0E9404
:10096000100658F3BA17620773078407950720F03B
:1009700079F4A6F50C9432060EF4E0950B2EBA2FFE
:10098000A02D0B01B90190010C01CA01A001112495
:10099000FF27591B99F0593F50F4503E68F11A1641
:1009A000F040A22F232F342F4427585FF3CF4695D2
:1009B00037952795A795F0405395C9F77EF41F16F4
:1009C000BA0B620B730B840BBAF09150A1F0FF0FBE
:1009D000BB1F661F771F881FC2F70EC0BA0F621FAA
:1009E000731F841F48F4879577956795B795F7959A
:1009F0009E3F08F0B0CF9395880F08F09927EE0F2F
:100A00009795879508950E9417050C94FF050E94FD
:100A1000F80558F00E94F10540F029F45F3F29F0F5
:100A20000C94E80551110C9433060C94EE050E94C9
:100A3000100668F39923B1F3552391F3951B550BD9
:100A4000BB27AA2762177307840738F09F5F5F4FA1
:100A5000220F331F441FAA1FA9F335D00E2E3AF0E0
:100A6000E0E832D091505040E695001CCAF72BD0F8
:100A7000FE2F29D0660F771F881FBB1F2617370749
:100A80004807AB07B0E809F0BB0B802DBF01FF277B
:100A900093585F4F3AF09E3F510578F00C94E8056B
:100AA0000C9433065F3FE4F3983ED4F38695779534
:100AB0006795B795F7959F5FC9F7880F911D969534
:100AC000879597F90895E1E0660F771F881FBB1F90
:100AD000621773078407BA0720F0621B730B840B3D
:100AE000BA0BEE1F88F7E09508950E947C05689484
:100AF000B1110C94330608950E94180688F09F5790
:100B000098F0B92F9927B751B0F0E1F0660F771F31
:100B1000881F991F1AF0BA95C9F714C0B13091F027
:100B20000E943206B1E008950C943206672F782FA8
:100B30008827B85F39F0B93FCCF3869577956795EC
:100B4000B395D9F73EF490958095709561957F4F58
:100B50008F4F9F4F0895E89409C097FB3EF49095FE
:100B60008095709561957F4F8F4F9F4F9923A9F086
:100B7000F92F96E9BB279395F69587957795679515
:100B8000B795F111F8CFFAF4BB0F11F460FF1BC059
:100B90006F5F7F4F8F4F9F4F16C0882311F096E9EC
:100BA00011C0772321F09EE8872F762F05C066239A
:100BB00071F096E8862F70E060E02AF09A95660F53
:100BC000771F881FDAF7880F9695879597F908950C
:100BD00097F99F6780E870E060E008959FEF80ECF0
:100BE000089500240A941616170618060906089593
:100BF00000240A9412161306140605060895092EF9
:100C00000394000C11F4882352F0BB0F40F4BF2B67
:100C100011F460FF04C06F5F7F4F8F4F9F4F0895A7
:100C200057FD9058440F551F59F05F3F71F047959D
:100C3000880F97FB991F61F09F3F79F08795089582
:100C4000121613061406551FF2CF4695F1DF08C0A1
:100C5000161617061806991FF1CF869571056105BE
:100C600008940895E894BB2766277727CB0197F966
:100C7000089508950E94CF080E9439060E94ED0150
:100C8000C0E0D0E00E945A022097E1F30E940000E9
:100C9000F9CFCF92DF92EF92FF920F931F93CF93F2
:100CA000DF936C017A018B01C0E0D0E0CE15DF0547
:100CB00081F0D8016D918D01D601ED91FC910190EB
:100CC000F081E02DC6010995892B11F02196EECF18
:100CD0007E01C701DF91CF911F910F91FF90EF909F
:100CE000DF90CF9008956115710579F0FB010190B7
:100CF0000020E9F73197AF01461B570BDC01ED915E
:100D0000FC910280F381E02D099480E090E0089549
:100D10000C947306DC01ED91FC910190F081E02DC3
:100D200009948F929F92AF92BF92EF92FF920F938E
:100D30001F93CF93DF93CDB7DEB7A1970FB6F8948B
:100D4000DEBF0FBECDBF7C01FA01CB0119A222305C
:100D500008F42AE08E010F5D1F4F822E912CA12CEA
:100D6000B12CBF01A50194010E94500BF901CA01E9
:100D7000015011096A3010F4605D01C0695CD8014E
:100D80006C93232B242B252B61F7B801C7010E94FC
:100D90007306A1960FB6F894DEBF0FBECDBFDF91EC
:100DA000CF911F910F91FF90EF90BF90AF909F90C8
:100DB0008F9008952115310541F4DC01ED91FC91EE
:100DC0000190F081E02D642F09940C9491069A0112
:100DD000AB0160E070E00C94DA06CF92DF92EF9204
:100DE000FF920F931F93CF93DF932115310581F469
:100DF000DC01ED91FC910190F081E02D642FDF91F9
:100E0000CF911F910F91FF90EF90DF90CF900994B9
:100E10002A30310501F577FF1DC06A017B01EC0125
:100E20006DE20E948A068C0144275527BA014C19AD
:100E30005D096E097F092AE0CE010E949106800FAC
:100E4000911FDF91CF911F910F91FF90EF90DF9055
:100E5000CF9008952AE0DF91CF911F910F91FF90DD
:100E6000EF90DF90CF900C9491069A01AB01770F31
:100E7000660B770B0C94ED067F928F929F92AF9248
:100E8000BF92CF92DF92EF92FF920F931F93CF9377
:100E9000DF938C016A017B01722E9A01AB01C701BD
:100EA000B6010E943B0B882319F060E471E027C073
:100EB00046015701E894B7F82FEF3FEF4FE75FE7A0
:100EC000C501B4010E943B0B81110DC02FEF3FEF14
:100ED0004FE75FE7C501B4010E94A00A18161CF491
:100EE00064E471E00CC02FEF3FEF4FE75FE4C70110
:100EF000B6010E94C90A181694F468E471E0C801AA
:100F0000DF91CF911F910F91FF90EF90DF90CF90E5
:100F1000BF90AF909F908F907F900C9473062FEFAF
:100F20003FEF4FE75FECC701B6010E94A00A87FDC3
:100F3000E4CF20E030E0A901C701B6010E94A00A79
:100F400087FF0AC06DE2C8010E948A06EC01F7FA29
:100F5000F094F7F8F09402C0C0E0D0E0B12C60E06B
:100F600070E080E09FE37B1441F020E030E040E25D
:100F700051E40E940305B394F6CFA70196010E94A5
:100F800097046B017C010E947C054B015C012AE007
:100F9000AB01BC01C8010E949106C80FD91F772080
:100FA000B9F1C501B4010E94AB059B01AC01C701B9
:100FB000B6010E9496046B017C016EE2C8010E949A
:100FC0008A06C80FD91F20E030E040E251E4C70193
:100FD000B6010E94CE0A4B015C010E947C056B01A8
:100FE0007C014AE050E0C8010E94E706C80FD91F03
:100FF000B60180E090E00E94AB059B01AC01C50109
:10100000B4010E9496046B017C017A947110DBCFCD
:10101000CE01DF91CF911F910F91FF90EF90DF9064
:10102000CF90BF90AF909F908F907F9008950C9439
:101030003C071F920F920FB60F9211242F933F93EC
:101040008F939F93AF93BF93809186019091870177
:10105000A0918801B09189013091850123E0230F8F
:101060002D3720F40196A11DB11D05C026E8230FE0
:101070000296A11DB11D2093850180938601909356
:101080008701A0938801B093890180918A01909192
:101090008B01A0918C01B0918D010196A11DB11D14
:1010A00080938A0190938B01A0938C01B0938D0162
:1010B000BF91AF919F918F913F912F910F900FBE54
:1010C0000F901F9018953FB7F89480918A019091E6
:1010D0008B01A0918C01B0918D0126B5A89B05C014
:1010E0002F3F19F00196A11DB11D3FBFBA2FA92FA7
:1010F000982F8827820F911DA11DB11DBC01CD0124
:1011000042E0660F771F881F991F4A95D1F708950F
:101110008F929F92AF92BF92CF92DF92EF92FF9207
:101120006B017C010E9463084B015C01C114D10476
:10113000E104F10401F10E949F0A0E946308DC01AE
:10114000CB0188199909AA09BB09883E9340A105DA
:10115000B10560F321E0C21AD108E108F10888EE78
:10116000880E83E0981EA11CB11CC114D104E104B7
:10117000F10419F7DBCFFF90EF90DF90CF90BF9095
:10118000AF909F908F9008958230910538F0880F2E
:10119000991F880F991F05970197F1F70895789483
:1011A00084B5826084BD84B5816084BD85B582606C
:1011B00085BD85B5816085BDEEE6F0E0808181600A
:1011C0008083E1E8F0E0108280818260808380810A
:1011D00081608083E0E8F0E0808181608083E1EBE2
:1011E000F0E0808184608083E0EBF0E080818160CA
:1011F0008083EAE7F0E08081846080838081826080
:101200008083808181608083808180688083109268
:10121000C10008958E3008F08E5020910E0190E4A8
:10122000299F900111248770822B80937C008091EC
:101230007A00806480937A0080917A0086FDFCCFEA
:10124000809178002091790090E0922B08951F936F
:10125000CF93DF93182FEB0161E00E94AF09209735
:1012600011F460E004C0CF3FD10539F461E0812F73
:10127000DF91CF911F910C94EB09E12FF0E0E85939
:10128000FF4FE491E330F9F048F4E130B9F0E23097
:10129000A1F584B5806284BDC8BD34C0E730E9F0F3
:1012A000E83019F1E43049F5809180008062809344
:1012B0008000D0938B00C0938A0024C084B58068DE
:1012C00084BDC7BD1FC0809180008068809380006E
:1012D000D0938900C093880015C08091B0008068C9
:1012E0008093B000C093B3000DC08091B0008062C5
:1012F0008093B000C093B40005C0C038D1050CF095
:10130000B5CFAFCFDF91CF911F910895833081F09A
:1013100028F4813099F08230A1F008958730A9F047
:101320008830B9F08430D1F4809180008F7D03C083
:10133000809180008F7780938000089584B58F77A7
:1013400002C084B58F7D84BD08958091B0008F77F1
:1013500003C08091B0008F7D8093B0000895CF933B
:10136000DF9390E0FC01E458FF4F2491FC01E0572B
:10137000FF4F8491882361F190E0880F991FFC0151
:10138000E255FF4FC591D491FC01EC55FF4FA5915B
:10139000B491611109C09FB7F89488812095822388
:1013A0008883EC912E230BC0623061F49FB7F894D0
:1013B0008881322F309583238883EC912E2B2C93B8
:1013C0009FBF06C08FB7F894E8812E2B28838FBF6C
:1013D000DF91CF9108951F93CF93DF93282F30E0B3
:1013E000F901E859FF4F8491F901E458FF4FD49176
:1013F000F901E057FF4FC491CC23C1F0162F8111A2
:101400000E948609EC2FF0E0EE0FFF1FEC55FF4F16
:10141000A591B4919FB7F894111104C08C91D09507
:10142000D82302C0EC91DE2BDC939FBFDF91CF91DC
:101430001F910895611571058105910511F00C94B6
:101440006B0D0895CF92DF92EF92FF9261157105B7
:101450008105910549F06B017C010E941D0DA701DA
:1014600096010E94720B03C060E070E0CB01FF9018
:10147000EF90DF90CF900895CF92DF92EF92FF929E
:101480000F931F93621773078407950784F48901EC
:101490009A016B017C01C901B8016C197D098E09A3
:1014A0009F090E94220A6C0D7D1D8E1D9F1D1F919C
:1014B0000F91FF90EF90DF90CF9008954F925F9241
:1014C0006F927F92AF92BF92CF92DF92EF92FF9294
:1014D0000F931F93CF93DF93CDB7DEB729013A0166
:1014E0009B01AC01241935094609570989899A8954
:1014F000AB89BC89BC01CD016A197B098C099D09A6
:101500000E94400BA8019701241935094609570983
:101510000E94720BCA01B9016A0D7B1D8C1D9D1DB5
:10152000DF91CF911F910F91FF90EF90DF90CF90BF
:10153000BF90AF907F906F905F904F900895089507
:101540000E94A50A08F481E00895990F0008550F3C
:10155000AA0BE0E8FEEF16161706E807F907C0F039
:1015600012161306E407F50798F0621B730B840B41
:10157000950B39F40A2661F0232B242B252B21F41B
:1015800008950A2609F4A140A6958FEF811D811DBB
:1015900008950E94A50A08F48FEF08950E94E10AB9
:1015A0000C94FF050E94F10538F00E94F80520F028
:1015B000952311F00C94E8050C94EE0511240C947D
:1015C00033060E94100670F3959FC1F3950F50E00B
:1015D000551F629FF001729FBB27F00DB11D639FE5
:1015E000AA27F00DB11DAA1F649F6627B00DA11D8B
:1015F000661F829F2227B00DA11D621F739FB00D31
:10160000A11D621F839FA00D611D221F749F3327A0
:10161000A00D611D231F849F600D211D822F762F39
:101620006A2F11249F5750409AF0F1F088234AF016
:10163000EE0FFF1FBB1F661F771F881F9150504082
:10164000A9F79E3F510580F00C94E8050C943306F1
:101650005F3FE4F3983ED4F3869577956795B79509
:10166000F795E7959F5FC1F7FE2B880F911D969523
:10167000879597F908950E94A50A880B990B0895FC
:10168000DB018F939F930E94910BBF91AF91A29F1B
:10169000800D911DA39F900DB29F900D1124089570
:1016A000A1E21A2EAA1BBB1BFD010DC0AA1FBB1F66
:1016B000EE1FFF1FA217B307E407F50720F0A21BD8
:1016C000B30BE40BF50B661F771F881F991F1A9445
:1016D00069F760957095809590959B01AC01BD016F
:1016E000CF010895052E97FB1EF400940E94890BEC
:1016F00057FD07D00E94500B07FC03D04EF40C940A
:10170000890B50954095309521953F4F4F4F5F4F36
:10171000089590958095709561957F4F8F4F9F4F5D
:1017200008950E94A20BA59F900DB49F900DA49FB9
:10173000800D911D11240895EE0FFF1F0590F49167
:10174000E02D0994A29FB001B39FC001A39F700D2B
:10175000811D1124911DB29F700D811D1124911DB9
:1017600008950F931F93CF93DF938230910510F468
:1017700082E090E0E0919001F091910120E030E072
:10178000A0E0B0E0309719F14081518102811381CE
:1017900048175907C8F08417950769F4109731F076
:1017A00012960C93129713961C9327C000939001E6
:1017B0001093910122C02115310519F042175307EA
:1017C00018F49A01BD01EF01DF01F801DBCF21150B
:1017D0003105F9F0281B390B2430310580F48A815A
:1017E0009B816115710521F0FB019383828304C005
:1017F0009093910180939001FE01329644C0FE01C6
:10180000E20FF31F8193919322503109398328838A
:101810003AC020918E0130918F01232B41F4209109
:1018200002013091030130938F0120938E012091AA
:101830000001309101012115310541F42DB73EB76A
:101840004091040150910501241B350BE0918E015C
:10185000F0918F01E217F307A0F42E1B3F0B28171E
:10186000390778F0AC014E5F5F4F2417350748F019
:101870004E0F5F1F50938F0140938E018193919380
:1018800002C0E0E0F0E0CF01DF91CF911F910F9116
:101890000895CF93DF93009709F481C0FC0132973C
:1018A00013821282A0919001B0919101109781F45E
:1018B00020813181820F931F20918E0130918F0101
:1018C0002817390751F5F0938F01E0938E0167C017
:1018D000ED0120E030E0CE17DF0740F44A815B8164
:1018E0009E0141155105F1F0EA01F5CFD383C28382
:1018F00040815181840F951FC817D90759F48881F9
:101900009981840F951F0296918380838A819B81A0
:10191000938382832115310529F4F0939101E0939B
:1019200090013DC0E901FB83EA8349915991C40FBD
:10193000D51FEC17FD0761F480819181840F951FFD
:101940000296E90199838883828193819B838A83AC
:10195000E0E0F0E012968D919C911397009719F0BA
:10196000FD01DC01F7CF8D919C9111979D012E5FB8
:101970003F4F820F931F20918E0130918F012817C6
:10198000390769F4309729F410929101109290016F
:1019900002C013821282B0938F01A0938E01DF9157
:1019A000CF9108958F929F92AF92BF92CF92DF9284
:1019B000EF92FF92CF93DF93EC01688179818A8166
:1019C0009B81611571058105910521F464E279ED32
:1019D0008BE597E02DE133EF41E050E00E94720B80
:1019E00049015A019B01AC01A7EAB1E40E94910BA5
:1019F0006B017C01ACEEB4EFA50194010E94770D60
:101A0000DC01CB018C0D9D1DAE1DBF1DB7FF03C0BA
:101A10000197A109B04888839983AA83BB83BC013D
:101A2000CD019F77DF91CF91FF90EF90DF90CF9026
:101A3000BF90AF909F908F9008958F929F92AF929A
:101A4000BF92CF92DF92EF92FF9260910601709168
:101A500007018091080190910901611571058105C7
:101A6000910521F464E279ED8BE597E02DE133EF08
:101A700041E050E00E94720B49015A019B01AC0108
:101A8000A7EAB1E40E94910B6B017C01ACEEB4EFCC
:101A9000A50194010E94770DDC01CB018C0D9D1DE9
:101AA000AE1DBF1DB7FF03C00197A109B0488093C9
:101AB000060190930701A0930801B0930901BC01AE
:101AC000CD019F77FF90EF90DF90CF90BF90AF90C8
:101AD0009F908F9008956093060170930701809303
:101AE0000801909309010895B7FF0C94910B0E948F
:0C1AF000910B821B930B0895F894FFCF1C
:101AFC00000092012000010000000B000E000151BB
:101B0C005F4C494400534F4D41004D454449410001
:101B1C0054454D5000515F534F4200545F5645544D
:101B2C00000000000069044906DB02DE020D0A0019
:0C1B3C006E616E00696E66006F766600D8
:00000001FF
