S01E0000736B657463685F6175673036615F7461726566615F352E73726563BB
S11300000C94F8010C9420020C9420020C9420020D
S11300100C9420020C9420020C9420020C942002D4
S11300200C94A3070C9420020C9420020C9420023C
S11300300C9420020C9420020C9420020C942002B4
S11300400C94A1160C9420020C94E7140C9419152A
S11300500C9420020C9420020C9420020C94200294
S11300600C9420020C942002206F722000206973EB
S1130070206E6F74200053706163653D00206F72C1
S11300802000206973206E6F7420005370616365D3
S11300903D00206973206E6F7420004D61726B3DCA
S11300A000206F722000206973206E6F742000534B
S11300B0706163653D00206973206E6F7420004D8C
S11300C061726B3D00206973206E6F742000537061
S11300D06163653D00206F722000206973206E6F9C
S11300E07420004D61726B3D00206973206E6F7443
S11300F0200053706163653D00206F722000206909
S113010073206E6F7420004D61726B3D0053746FE9
S11301107020626974206D61726B206C656E677407
S1130120682069732077726F6E670053746F702054
S1130130626974206D61726B206C656E67746820EF
S113014069732077726F6E67004465636F6465201E
S11301506661696C6564004A56433A200053746FC3
S11301607020626974206D61726B206C656E6774B7
S1130170682069732077726F6E67004C473A2000DD
S113018053746F7020626974206D61726B206C65AA
S11301906E6774682069732077726F6E67004C47CE
S11301A03A20004465636F6465206661696C656428
S11301B0004C473A200048656164657220737061A1
S11301C06365206C656E6774682069732077726F4D
S11301D06E67004C473A2000206973206E6F7420CC
S11301E0696E7665727465642076616C7565206FDE
S11301F06620307800436F6D6D616E643D30780029
S11302004E45433A200053746F7020626974206D28
S113021061726B206C656E677468206973207772F5
S11302206F6E67004E45433A20004465636F646512
S1130230206661696C6564004E45433A2000486558
S113024061646572207370616365206C656E6774A8
S1130250682069732077726F6E67004E45433A20B9
S1130260004465636F6465206661696C656400526F
S113027043363A2000546F67676C65206D61726B7A
S1130280206F72207370616365206C656E6774689B
S11302902069732077726F6E67005243363A2000EC
S11302A0546F67676C65206D61726B206F72207389
S11302B070616365206C656E67746820697320776C
S11302C0726F6E67005243363A2000546F67676C52
S11302D065206D61726B206F72207370616365209D
S11302E06C656E6774682069732077726F6E67003F
S11302F05243363A2000206973206E6F7420340014
S1130300507265616D626C6520636F6E74656E74A6
S113031020005243363A2000507265616D626C656C
S1130320206D61726B206F72207370616365206C45
S1130330656E6774682069732077726F6E67005208
S113034043363A200053746F7020626974206D61E3
S1130350726B206C656E6774682069732077726FA6
S11303606E6700486561646572206D61726B206F11
S113037072207370616365206C656E6774682069B0
S1130380732077726F6E67005768796E7465723A7E
S11303902000000000080002010000030407000020
S11303A00000000000000102040810204080010247
S11303B004081020010204081020040404040404A6
S11303C00404020202020202030303030303000003
S11303D0000023002600290000000000250028005A
S11303E02B0000000000240027002A00A108491562
S11303F011241FBECFEFD8E0DEBFCDBF16E0A0E0D2
S1130400B1E0E6E9F2E302C005900D92A030B10735
S1130410D9F727E0A0E0B6E001C01D92A93CB207DD
S1130420E1F711E0C8EFD1E004C02197FE010E947A
S11304304319C63FD107C9F70E9477150C9449198F
S11304400C94000080915006833011F410925006F1
S113045008959C01F89492E09093B0009093B100B9
S113046094E69093B3009093B4001092B20084E0A9
S1130470809370007894C9010E94220260E0809108
S113048051060C945A17CF93DF93EC0180E596E064
S11304909C8F8B8F80915706882369F010925706A2
S11304A01092540680E48E8B60E071E083E297E062
S11304B00E94081611C01E8A89899A89A0E0B0E0BA
S11304C089A39AA3ABA3BCA38F859889A0E0B0E0CD
S11304D08D8F9E8FAF8FB8A31A8A198A188A1F86A8
S11304E01F8A188E198E1A8E1D8ADF91CF91089556
S11304F08AE0849FF001859FF00D11249B0193E015
S1130500220F331F9A95E1F7E217F30778F0869FDD
S11305109001879F300D112483E0440F551F8A9565
S1130520E1F72417350720F081E0089580E008956D
S113053082E008958F929F92AF92BF92CF92DF9202
S1130540EF92FF920F931F93CF93DF93EC01EB8D08
S1130550FC8D94819630B0F18F01065F1F4F82E0CD
S1130560C82ED12C25EC822E2DE9922E2CE1A22E20
S113057021E8B22EE92EF12C8FEFC81AD80ACE1436
S1130580DF04B8F4F801448155810E5F1F4F608188
S11305907181CE010E947802E82FA501940163E9DC
S11305A071E080E091E00E94CA184B015C018E2644
S11305B0E3CF8F8A988EA98EBA8E80E28D8B1E86A9
S11305C081E001C080E0DF91CF911F910F91FF90F6
S11305D0EF90DF90CF90BF90AF909F908F90089551
S11305E01F93CF93DF93EC0180915006833009F081
S11305F065C088E596E09A8789878091540690E0E3
S11306009C878B8781E090915706911101C080E00F
S11306108D87CE010E9443028E8986FF02C01E860A
S113062005C0CE010E946C0F882311F011E047C071
S1130630CE010E94700A8111F9CFCE010E94670990
S11306408111F4CFCE010E9428128111EFCFCE0187
S11306500E9446108111EACFCE010E9486108111BA
S1130660E5CFCE010E94F80C8111E0CFCE010E94AB
S1130670F9098111DBCFCE010E947D118111D6CF02
S1130680CE010E94B2128111D1CFCE010E94DD0BA6
S11306908111CCCFCE010E94BC088111C7CFCE01FD
S11306A00E94FF0D8111C2CFCE010E949A02182F21
S11306B08111BCCFCE010E94220201C010E0812F23
S11306C0DF91CF911F910895CF93DF93EC0162E105
S11306D071E083E297E00E940816CE01DF91CF918A
S11306E00C94F002FC019B012C5E3F4FC90163E4B2
S11306F070E00E94DA18E617F70758F0C90168E2BB
S113070070E00E94DA186F5F7F4F81E06E177F07F9
S113071008F480E00895FC019B0124513109C901CA
S113072063E470E00E94DA18E617F70758F0C9018D
S113073068E270E00E94DA186F5F7F4F81E06E1705
S11307407F0708F480E008952F923F924F925F92C2
S11307506F927F928F929F92AF92BF92CF92DF92CD
S1130760EF92FF920F931F93CF93DF93CDB7DEB732
S113077028970FB6F894DEBF0FBECDBF9E838D833E
S1130780362E5901DC015B968D909C905C97F401A8
S1130790E40FF11DE40FF11D3896F887EF83C110C3
S11307A00CC081E090E0A0E0B0E089839A83AB8341
S11307B0BC83412C512C3201C8C0212C412C512C1A
S11307C03201231409F422C1AF81B885CD90DC90A5
S11307D0B501C6010E947203882339F0440C551CEC
S11307E0661C771C689440F832C0B801C6010E94A8
S11307F07203D82E882329F0440C551C661C771CE0
S113080026C067E071E083E297E00E94C515EF819E
S1130810F8858081918122E3289FB001299F700D82
S113082011244AE050E083E297E00E9489166EEFBB
S113083070E083E297E00E94C5154AE050E0B501FC
S113084083E297E00E94891669EF70E0ADC02F81C2
S113085038852E5F3F4FD40114964C91C401840F08
S1130860911D840F911D089628173907C8F5B70103
S1130870EF81F885828193810E948B03D82E8111A8
S11308802BC062EF70E083E297E00E94C515AF8150
S1130890B88512968D919C91139722E3289FB001FD
S11308A0299F700D11244AE050E083E297E00E94F2
S11308B0891669EE70E083E297E00E94C5154AE06C
S11308C050E0B70183E297E00E94891660E283E278
S11308D097E00E94EB15A4C02F8138852C5F3F4F11
S11308E0239438872F836DCFEF81F885C080D18022
S11308F0B501C6010E947203882351F189819A814E
S1130900AB81BC81482A592A6A2A7B2A2F813885DF
S11309102E5F3F4FF4014481C401840F911D840F65
S1130920911D08962817390708F446C089819A81D1
S1130930AB81BC81880F991FAA1FBB1F89839A832F
S1130940AB83BC833A9438872F833110CDCF5EC0FC
S1130950B801C6010E947203D82E8111D7CF63EE6D
S113096070E083E297E00E94C515AF81B8858D9150
S11309709C9122E3289FB001299F700D11244AE025
S113098050E083E297E00E9489166AED70E083E20A
S113099097E00E94C5154AE050E0B50183E297E074
S11309A00E94891665ED70E083E297E00E94C51508
S11309B04AE050E0B80186CFB701AF81B8851296FE
S11309C08D919C9113970E948B03D82E811119C08D
S11309D06EEC70E083E297E00E94C515EF81F88524
S11309E08281938122E3289FB001299F700D1124F5
S11309F04AE050E083E297E00E94891665EC70E0DB
S1130A005ACF2F8138852C5F3F4F90CFAD81BE8167
S1130A1057964D925D926D927C925A97DD24D394B1
S1130A208D2D28960FB6F894DEBF0FBECDBFDF9193
S1130A30CF911F910F91FF90EF90DF90CF90BF90D7
S1130A40AF909F908F907F906F905F904F903F906A
S1130A502F9008952F923F924F925F926F927F92C0
S1130A608F929F92AF92BF92CF92DF92EF92FF92BA
S1130A700F931F93CF93DF9300D000D01F92CDB775
S1130A80DEB79B838A8369831901842F90E00496DF
S1130A90880F991FEA81FB81438D548D840F951F24
S1130AA09D838C83C11008C0812C912C54018394A4
S1130AB0412C512C32019FC0812C412C512C3201EC
S1130AC0F9818F1609F4F2C0B101EC81FD818081B6
S1130AD091810E947203D82E811119C06FEB70E0CE
S1130AE083E297E00E94C515EC81FD8180819181AC
S1130AF022E3289FB001299F700D11244AE050E0A1
S1130B0083E297E00E94891666EB70E09AC0EC815C
S1130B10FD81C280D380B801C6010E948B03882363
S1130B2039F0440C551C661C771C689440F842C08C
S1130B30B701C6010E948B03D82E882329F0440CE8
S1130B40551C661C771C36C06FEA70E083E297E0A0
S1130B500E94C515EC81FD818281938122E3289F47
S1130B60B001299F700D11244AE050E083E297E020
S1130B700E94891666EA70E083E297E00E94C51538
S1130B804AE050E0B80183E297E00E94891661EAE6
S1130B9070E083E297E00E94C5154AE050E0B70197
S1130BA083E297E00E94891660E283E297E00E9464
S1130BB0EB1584C08C819D8104969D838C838394E2
S1130BC07FCFEC81FD81C280D380B801C6010E9431
S1130BD08B038823F1F1482859286A287B288C81C3
S1130BE09D8104969D838C83880C991CAA1CBB1C34
S1130BF09981915099839981992309F457C0B1013E
S1130C00EC81FD81808191810E947203D82E811133
S1130C10D8CF6BE970E083E297E00E94C515EC81C0
S1130C20FD818081918122E3289FB001299F700D6D
S1130C3011244AE050E083E297E00E94891662E9B9
S1130C4070E083E297E00E94C5154AE050E0B101EC
S1130C50A7CFB701C6010E948B03D82E8111BFCF45
S1130C606BE870E083E297E00E94C515EC81FD819A
S1130C708281938122E3289FB001299F700D112462
S1130C804AE050E083E297E00E94891662E870E04F
S1130C9083E297E00E94C5154AE050E0B80183E280
S1130CA097E00E9489166DE770E073CFEA81FB81BB
S1130CB0478A508E618E728EDD24D3948D2D0F90D1
S1130CC00F900F900F900F90DF91CF911F910F9184
S1130CD0FF90EF90DF90CF90BF90AF909F908F9058
S1130CE07F906F905F904F903F902F9008952F9238
S1130CF03F924F925F926F927F928F929F92AF92A8
S1130D00BF92CF92DF92EF92FF920F931F93CF93F4
S1130D10DF93CDB7DEB72C970FB6F894DEBF0FBEC6
S1130D20CDBF9D838C836A875801DC015B960D904F
S1130D30BC91A02DBB83AA83A40FB11DA40FB11D28
S1130D401896BC87AB8741704983922F9170380104
S1130D50660C771C10E0C12CD12C760100E081E0F8
S1130D608927282F30E040E050E02E833F834887D6
S1130D705987292E312C412C512C3A85131708F010
S1130D8073C04981442339F1AB85BC858D909C9017
S1130D90B501C4010E947203882361F00F5F00FF54
S1130DA059C0CC0CDD1CEE1CFF1CC228D328E4283F
S1130DB0F52837C0B301C4010E947203082F8823A9
S1130DC009F491C0CC0CDD1CEE1CFF1CC228D328F6
S1130DD0E428F5283DC0EA81FB812481CF01820FFC
S1130DE0911D820F911D08962B853C852817390784
S1130DF049F0D9018D909C90B501C4010E948B03E8
S1130E00882389F00F5F00FF25C0CC0CDD1CEE1C8D
S1130E10FF1C2E813F8148855985C22AD32AE42AA2
S1130E20F52A1F5F17C0B301C4010E948B03082F6A
S1130E30882321F1112361F0CC0CDD1CEE1CFF1C76
S1130E408E819F81A885B985C82AD92AEA2AFB2AD6
S1130E501F5F00E0EB85FC853296FC87EB87F98108
S1130E6021E0F227F98389CFAC81BD815796CD92D9
S1130E70DD92ED92FC925A9701E035C066E770E08E
S1130E8083E297E00E94C515AB85BC858D919C914A
S1130E9022E3289FB001299F700D11244AE050E0FD
S1130EA083E297E00E9489166DE670E083E297E0A2
S1130EB00E94C5154AE050E0B50183E297E00E9424
S1130EC0891668E670E083E297E00E94C5154AE05F
S1130ED050E0B30183E297E00E94891660E283E266
S1130EE097E00E94EB15802F2C960FB6F894DEBF86
S1130EF00FBECDBFDF91CF911F910F91FF90EF9067
S1130F00DF90CF90BF90AF909F908F907F906F9025
S1130F105F904F903F902F900895982F80915306A3
S1130F20882381F080915206992331F0882311F0AF
S1130F3061E005C02D9A0895882319F060E00C94AF
S1130F4096172D9808951F920F920FB60F921124A1
S1130F502F933F934F935F936F937F938F939F93BD
S1130F60AF93BF93EF93FF93809151060E94C517EF
S1130F7020915506309156062F5F3F4F21F0309354
S1130F8056062093550690915006911118C0811170
S1130F9016C020915506309156062536310558F075
S1130FA010925706309359062093580691E0909377
S1130FB05406909350061092560610925506E091EE
S1130FC05406E53630F091E09093570693E0909301
S1130FD05006909150069130B9F4813009F040C028
S1130FE09E0F90935406F0E0EE0FFF1FE85AF94F5E
S1130FF0209155063091560631832083109256066F
S11310001092550692E01AC0909150069230F1F475
S11310102091550630915606811113C091E09E0F20
S113102090935406F0E0EE0FFF1FE85AF94F318316
S11310302083109256061092550691E09093500624
S11310400FC02536310560F093E0F8CF909150063B
S1131050933031F4811104C0109256061092550653
S113106091E0811190E0892F0E948D07FF91EF910B
S1131070BF91AF919F918F917F916F915F914F91AC
S11310803F912F910F900FBE0F901F90189520E065
S113109042E060E180E096E00E94DF1386E296E0A1
S11310A00E94290261E08DE00E945A1740E060E04E
S11310B080E096E00E94C41360E971E080E096E06D
S11310C00C94E9158DE00E94C51761E0892B09F0A5
S11310D060E08DE00C94961768E176E086E296E095
S11310E00E946403882361F16091190670911A06C5
S11310F080911B0690911C060E94AA1460934C06D2
S113110070934D0680934E0690934F060E9462089A
S113111041E065E080E096E00E94C4134091190626
S113112050911A0660911B0670911C0620E130E074
S113113080E096E00E94631686E296E00C94220218
S11311400895CF92EF920F93E0E5F6E0138283E0E7
S1131150809322078BE0818382E0C82E93E0E92EFE
S113116004E025E046E067E080E096E00E94841415
S11311700F91EF90CF900895CF92EF92FF920F933B
S11311801F93CF93DF93EC01EB8DFC8D64E274E04D
S1131190828593850E947203182F882309F48EC0D8
S11311A0EB8DFC8D84818432E1F069E372E083E2AB
S11311B097E00E94E91560E472E083E297E00E9400
S11311C0E915EB8DFC8D4AE050E0648183E297E001
S11311D00E9470166DE472E083E297E00E940816A4
S11311E05BC06AEA75E0848595850E948B03182F9D
S11311F0811109C069E372E083E297E00E94E91576
S113120068E572E019C0C12C87EAE82E85E0F82E63
S113121004ED11E026E132E043E060E1CE010E94FA
S11312202A05182F81110DC069E372E083E297E06B
S11312300E94E91565E772E083E297E00E940816D0
S11312403DC0EB8DFC8DE25BFF4F66E172E0808177
S113125091810E947203182F81110DC069E372E01D
S113126083E297E00E94E9156DE071E083E297E084
S11312700E94F61523C08F89988D98279F3F71F09F
S113128069E372E083E297E00E94E91563E872E0A3
S113129083E297E00E94E91510E010C0EB8DFC8D0D
S11312A0208531852431354010F491E09E8B90E007
S11312B09A8B898B82E18E8780E18D8B812FDF91E0
S11312C0CF911F910F91FF90EF90CF900895CF92FF
S11312D0DF92EF92FF920F931F93CF93DF932091AE
S11312E05406203209F07AC0EC01CC24C3943CE0CB
S11312F0E32E33E0F32E0CE117E024E031E041E08B
S11313006FE00E942A05182F81110DC06DEA72E06A
S113131083E297E00E94E91565E772E083E297E0D3
S11313200E9408165CC0EB8DFC8DEA5BFF4F64E005
S113133071E0808191810E947203182F81110DC088
S11313406DEA72E083E297E00E94E9156BE271E0D6
S113135083E297E00E94F61542C080E88E8BCF8826
S1131360D88CE98CFA8C4C2D4370D701C60122E04D
S1131370B695A795979587952A95D1F79F87188A4B
S11313809C0133273A8B298BEB8DFC8D208531858D
S113139025363440B8F42DA12F5F2DA3C0FE0CC018
S11313A032E83E8B39A18095381711F086E88E8B90
S11313B0832F90E09A8B898B223028F08E8981606C
S11313C08E8B01C01DA29FE09D8B8FEF840F823016
S11313D010F49E8704C081E08E8701C010E0812F45
S11313E0DF91CF911F910F91FF90EF90DF90CF90FD
S11313F00895CF92EF92FF920F931F93CF93DF93B1
S1131400EC01EB8DFC8D8481843201F1823209F090
S11314105DC08085918582369D4550F56EE072E011
S1131420828593850E947203882311F1EB8DFC8DD4
S11314308481E80FF11DE80FF11D6EE072E08681F2
S113144097810E94720381113EC012C060EE70E267
S1131450828593850E9472038823C1F1EB8DFC8DF4
S113146060E770E1848595850E948B03882371F180
S1131470C12C8EE0E82E82E0F82E0AE216E02EE07F
S113148032E043E060E1CE010E942A05182F811169
S11314900DC067E571E083E297E00E94C51569E439
S11314A071E083E297E00E94F61511C08F89288DC0
S11314B030E03A8B298B90E0988B8F8780E18D8B7D
S11314C083E08E8704C081E08E8BD2CF10E0812F21
S11314D0DF91CF911F910F91FF90EF90CF900895DE
S11314E04F925F926F927F929F92AF92BF92CF92F0
S11314F0DF92EF92FF920F931F93CF93DF93DC0160
S11315005B96ED91FC915C972481243609F043C1EC
S1131510EC0160E87DE0828593850E947203182FB8
S1131520811109C065E673E083E297E00E94E91542
S113153060E773E07BC0EB8DFC8D60EC76E0848526
S113154095850E947203182F811109C065E673E026
S113155083E297E00E94E91568E572E067C0C12C58
S1131560A0EBEA2EFF24F39400E115E020EB31E038
S113157043E060E1CE010E942A05182F811109C0C1
S113158065E673E083E297E00E94E9156CE873E096
S11315904DC0DF88AD2CB88CB2E0AB16B0E2BB0610
S11315A0B9F02AEAA2162AE5B206A9F084E5A8163B
S11315B082E3B80699F0A3E0AA16A1E0BA0689F07E
S11315C0B3E2AB16BBECBB0679F0F7E09F2E0EC07E
S11315D0E6E09E2E0BC07AE0972E08C069E0962EB6
S11315E005C058E0952E02C04BE0942EDB248D2DCF
S11315F082958F708D258F70D82EC12C30EBE32E01
S1131600FF24F39400E115E020EB31E043E260E2D3
S1131610CE010E942A05182F81110DC065E673E0E2
S113162083E297E00E94E91564EA73E083E297E0BD
S11316300E940816B1C04F88588C698C7A8CC201FC
S113164024E0969587952A95E1F7988B8F87862DC8
S113165090E09A8B898B042D062505252D2D30E0ED
S1131660842D8F7090E02817390791F165E673E0B7
S113167083E297E00E94E9156CEC73E083E297E063
S11316800E94E91540E150E06D2D83E297E00E944D
S113169070166EEF73E083E297E00E94E9154F89BC
S11316A0588D698D7A8D20E130E083E297E00E94C5
S11316B063166BE074E083E297E00E94E91540E171
S11316C050E0B50183E297E00E948F1684E08E8B90
S11316D027E0921209C08E8980618E8B8B899C8948
S11316E0A82AB92ABC8AAB8A071509F446C065E65C
S11316F073E083E297E00E94E91568E174E083E215
S113170097E00E94E91540E150E0602F83E297E002
S11317100E9470166EEF73E083E297E00E94E91571
S11317204F89588D698D7A8D452F562F672F7727CE
S113173020E130E083E297E00E94631661E474E004
S113174083E297E00E94E9156F85788940E150E0D3
S113175083E297E00E9489166DE474E083E297E0E7
S11317600E94E91569897A8940E150E083E297E0B3
S11317700E948F168E8984608E8BEB8DFC8D808504
S1131780918588329A4018F48E8981608E8B9E866A
S113179080E38D8B01C010E0812FDF91CF911F91E9
S11317A00F91FF90EF90DF90CF90BF90AF909F90FC
S11317B07F906F905F904F900895AF92BF92CF92B9
S11317C0DF92EF92FF920F931F93CF93DF93EC017D
S11317D0EB8DFC8D6EE970E0828593850E94720327
S11317E0F82E882309F4F8C0EB8DFC8D84818432B3
S11317F0E9F065E674E083E297E00E94E91560E4AD
S113180072E083E297E00E94E915EB8DFC8D4AE0DB
S113181050E0648183E297E00E9470166DE472E008
S113182083E297E00E940816F12CD6C062E074E0CF
S1131830848595850E948B03F82E811109C065E685
S113184074E083E297E00E94E91568E572E01AC04B
S1131850CC24C39457E0E52EFF24F39409E212E06C
S11318602EE930E043E060E1CE010E942A05F82E23
S113187081110DC065E674E083E297E00E94E915EA
S113188065E772E083E297E00E940816A5C0EB8D3D
S1131890FC8DE25BFF4F6EE970E0808191810E94D4
S11318A07203F82E81110DC065E674E083E297E0BF
S11318B00E94E9156DE571E083E297E00E94F61558
S11318C08BC080E88E8B8F89688DC82ED62EA62E6D
S11318D0A2949FE0A922062F0F70960144E036954A
S11318E027954A95E1F7922F9F70B92E8F70E82EB5
S11318F01FE01A2510271927811709F456C065E639
S113190074E083E297E00E94E9156BED73E083E2F3
S113191097E00E94E91540E150E0612F83E297E0EF
S11319200E9470166EEF73E083E297E00E94E9155F
S113193040E150E06E2D83E297E00E9470166CE661
S113194074E083E297E00E94E91540E150E0B601BB
S113195083E297E00E94891665E774E083E297E0EA
S11319600E94E91540E150E06A2D83E297E00E946D
S1131970701668E874E083E297E00E94E91540E19C
S113198050E0602F83E297E00E94701668E874E0EC
S113199083E297E00E94E91540E150E06B2D83E279
S11319A097E00E94771684E88E8BEB8DFC8D808502
S11319B09185883F914118F48E8982608E8BAF8621
S11319C0188A80E1089FB00111246B297A8B698BF6
S11319D083E18E8780E18D8B8F2DDF91CF911F91D5
S11319E00F91FF90EF90DF90CF90BF90AF9008954C
S11319F0CF92DF92EF92FF920F931F93CF93DF93D7
S1131A00DC015B96ED91FC915C9724812C3319F0F9
S1131A10243009F0DEC0EC0160E073E28285938536
S1131A200E947203882309F4D4C0EB8DFC8D2481B9
S1131A3084859585243099F460EC78E00E948B03CA
S1131A40882309F4C6C0EB8DFC8D60E372E08685C3
S1131A5097850E947203182F8111BDC0BAC060E837
S1131A6071E10E948B03182F811109C063ED71E0AD
S1131A7083E297E00E94C51566EB71E01AC0CC249E
S1131A80C394F0E3EF2EF2E0FF2E00E916E020E32A
S1131A9032E043E06CE1CE010E942A05182F811147
S1131AA00DC061EB71E083E297E00E94C51563EA23
S1131AB071E083E297E00E94F61597C0EB8DFC8DF0
S1131AC0E258FF4F60E372E0808191810E947203CB
S1131AD0182F811109C06EE971E083E297E00E943A
S1131AE0C51560E871E0E5CF80E88E8B8F89988D0D
S1131AF0A98DBA8D6C017D0174E0F694E794D794B6
S1131B00C7947A95D1F7A601DA8AC98A6C017D0156
S1131B10E4E1F694E794D794C794EA95D1F7D88A88
S1131B20CF8624E030E000E0642F6F70060F64E09D
S1131B30569547956A95E1F721503109A9F7402F49
S1131B4050E060E070E08F709927AA27BB27481700
S1131B5059076A077B07C1F16BE771E083E297E0FD
S1131B600E94C5156DE874E083E297E00E94E915D0
S1131B7040E150E0602F83E297E00E9470166EEF20
S1131B8073E083E297E00E94E9154F89588D698DCF
S1131B907A8D4F7055276627772720E130E083E25E
S1131BA097E00E94631668EB74E083E297E00E947A
S1131BB0E91569897A8940E150E083E297E00E945F
S1131BC08F168E8984608E8B84E08E878CE18D8B5A
S1131BD00CC010E00AC081E88E8B8D8D9E8D988B91
S1131BE08F8789A19AA19A8B898B812FDF91CF91BD
S1131BF01F910F91FF90EF90DF90CF9008953F9247
S1131C004F925F926F927F928F929F92AF92BF9208
S1131C10CF92DF92EF92FF920F931F93CF93DF93B4
S1131C20CDB7DEB7CE56D1090FB6F894DEBF0FBEDE
S1131C30CDBF9E012F5F3F4F390126E6D3011D9290
S1131C402A95E9F7DC015B96ED91FC915C97248180
S1131C50263609F026C17C01A8961FAEA897A9963E
S1131C601FAEA997AA961FAEAA97AB961FAEAB97C5
S1131C70AC961FAEAC97AD961FAEAD97AE961FAEA9
S1131C80AE97AF961FAEAF97CC24C394D12C42E34A
S1131C90542E51E3452E60E3362ED7015B96ED9129
S1131CA0FC915C97848190E096012F5F3F4F281749
S1131CB0390708F0CEC0C601880F991FE80FF91F35
S1131CC0A084B184B2E0CB0ED11C02851385C80177
S1131CD0B5010E94DA184B0168E675E083E297E0EB
S1131CE00E94E91564E775E083E297E00E94E91534
S1131CF05A9CB0015B9C700D11244AE050E083E2D1
S1131D0097E00E9489166AE775E083E297E00E94F3
S1131D10E915509EB001519E700D11244AE050E027
S1131D2083E297E00E94891662E875E083E297E017
S1131D300E94E9154AE050E0B40183E297E00E9472
S1131D408F166EE774E0C501800F911F0E94720325
S1131D50182F882309F476C0F601F695E79522E05A
S1131D6082169104B8F1A8962FADA897A9963FAD15
S1131D70A997AA964FADAA97AB965FADAB97AC96D1
S1131D806FADAC97AD967FADAD97AE968FADAE9778
S1131D90AF969FADAF9701E00E942A19A8962FAF86
S1131DA0A897A9963FAFA997AA964FAFAA97AB96C3
S1131DB05FAFAB97AC966FAFAC97AD967FAFAD9777
S1131DC0AE968FAFAE97AF969FAFAF97EC0FFD1F58
S1131DD0308263CFA8962FADA897A9963FADA99757
S1131DE0AA964FADAA97AB965FADAB97AC966FAD85
S1131DF0AC97AD967FADAD97AE968FADAE97AF96DF
S1131E009FADAF9701E00E942A192160A8962FAFD9
S1131E10A897A9963FAFA997AA964FAFAA97AB9652
S1131E205FAFAB97AC966FAFAC97AD967FAFAD9706
S1131E30AE968FAFAE97AF969FAFAF97EC0FFD1FE7
S1131E4040822BCF6AE875E083E297E00E9408168F
S1131E5029C0B30183E297E00E94081684E1D70108
S1131E601E968C931E97D694C7945596CC925597EC
S1131E7080E156968C935697A9968EAD9FADA997FF
S1131E8054969C938E935397AD968CAD9DADAEAD09
S1131E90BFADAD97F701878B908FA18FB28F11E003
S1131EA001C010E0812FC259DF4F0FB6F894DEBF96
S1131EB00FBECDBFDF91CF911F910F91FF90EF9097
S1131EC0DF90CF90BF90AF909F908F907F906F9056
S1131ED05F904F903F900895CF92EF92FF920F93AF
S1131EE01F93CF93DF93EC01EB8DFC8D94819F7B4B
S1131EF0943009F0B6C060E073E2828593850E9455
S1131F007203882309F4ADC0EB8DFC8D2481848594
S1131F109585243051F460EC78E00E948B0388238B
S1131F2009F49FC0EB8DFC8D15C060E871E10E943F
S1131F308B03182F811109C06BE572E083E297E0EF
S1131F400E94C5156EE372E029C0EB8DFC8D84817F
S1131F50843059F460E372E0868597850E947203A9
S1131F60182F882309F47DC07EC0C12C80E3E82E9D
S1131F7082E0F82E00E916E020E332E043E060E27C
S1131F80CE010E942A05182F81110DC068E372E06A
S1131F9083E297E00E94C5156AE272E083E297E06B
S1131FA00E94F6156AC0EB8DFC8DE257FF4F60E38B
S1131FB072E0808191810E947203182F811109C0FF
S1131FC064E272E083E297E00E94C51566E072E085
S1131FD0E5CF8F89988DF98C0A8D2F2D30E03A8BBF
S1131FE0298B9C012E3E47E8340739F481E18E8722
S1131FF0602F70E0788B6F8731C045E04E879095F5
S1132000891304C090E0988B8F8702C0388B2F8788
S1132010802F8095F81611F160E072E083E297E07A
S11320200E94C51565EF71E083E297E00E94C51533
S113203040E150E06F2D83E297E00E94701668ED56
S113204071E083E297E00E94C51540E150E0602F03
S113205083E297E00E94771684E08E8B80E28D8B7A
S11320600CC010E00AC081E08E8B8D8D9E8D988B04
S11320708F8789A19AA19A8B898B812FDF91CF9128
S11320801F910F91FF90EF90CF9008950F931F939E
S1132090CF93DF93EC0109E713E021E041E06EE028
S11320A00E947706882369F190E89E8B6F89988D4A
S11320B0262F2F7330E03A8B298B462F592FBA01E4
S11320C0E6E076956795EA95E1F76F717727788B67
S11320D06F8754FD04C0205C3F4F3A8B298B93FFDC
S11320E002C098E89E8BEB8DFC8D20853185233EC4
S11320F0384018F49E8991609E8B9CE09E879DE0F9
S11321009D8BDF91CF911F910F9108950F931F9392
S1132110CF93DF93EC01EB8DFC8D68E67AE082854A
S113212093850E947203882309F47AC0EB8DFC8D99
S113213068E773E0848595850E948B03882309F4FE
S11321406FC00CEB11E020E043E064E0CE010E949C
S11321507706182F811109C06FE373E083E297E0DB
S11321600E94C51568E173E056C08F89988DA98DCA
S1132170BA8D0497A105B105E9F062E173E083E249
S113218097E00E94C51560E073E083E297E00E9447
S1132190C5154F89588D698D7A8D2AE030E083E228
S11321A097E00E94631666EF72E083E297E00E9474
S11321B0F61536C0EB8DFC8D6CEB71E0828D938D42
S11321C00E947203882371F1EB8DFC8D68E773E044
S11321D0848D958D0E948B03882321F1EB8DFC8DDA
S11321E068E773E0868D978D0E947203811134C075
S11321F0EB8DFC8D64E375E0868D978D0E947203F0
S1132200182F811127C060EF72E083E297E00E94EB
S1132210C5156BEC72E083E297E00E94F61567C087
S113222010E065C0EB8DFC8D64E375E0828D938DC9
S11322300E947203182F882309F44EC088E08E8B05
S1132240EB8DFC8D68E773E0848D958D0E948B0384
S1132250882371F14CE001C04DE00CEB11E020E06B
S113226060E1CE010E947706182F811109C06FE644
S113227072E083E297E00E94C51561E672E0CBCF7D
S113228080E88E8B2F89888D30E03A8B298B90E003
S1132290988B8F87EB8DFC8D808591858A389C4047
S11322A010F481E88E8B8DE08E8780E18D8B1FC0CA
S11322B0EB8DFC8D64E375E0848D958D0E948B031A
S11322C0182F811112C065EC72E083E297E00E943E
S11322D0C51560EA72E09FCF6AE972E083E297E095
S11322E00E94C51565E772E096CF4BE0B6CF812F0B
S11322F0DF91CF911F910F910895CF92DF92EF92CA
S1132300FF920F931F93CF93DF93DC015B96ED91C4
S1132310FC915C972481322F3F7D343411F02630B8
S113232001F5EC0160E371E1828593850E947203FB
S1132330882359F0EB8DFC8D60E371E184859585EC
S11323400E948B03D82E81110EC06CE975E083E2E4
S113235097E00E94E91566EA75E083E297E00E943F
S11323600816D12C6BC0EB8DFC8D8481863059F41A
S113237081E08E8B8D8D9E8D988B8F8789A19AA1FC
S11323809A8B898B5BC0C12C96E2E92E92E0F92EE0
S113239002E716E026E232E043E0843661F560E1CC
S11323A0CE010E942A05882361F18F89988D988B2C
S11323B08F87C12C86E2E82E82E0F82E02E716E031
S11323C026E232E043E060E2CE010E942A0588233F
S11323D0C1F09F89888D298D3A8D2095321729F077
S11323E09095981711F094E09E8B90E0932B9A8B24
S11323F0898B80E320C060E2CE010E942A0581110E
S113240009C06CE975E083E297E00E94E91565E78D
S113241072E0A3CF898D3A8D2F89988D2F87988B61
S1132420932F9095891304C090E09A8B898B02C0F6
S1132430898B3A8B80E28D8B8EE08E878D2DDF9198
S1132440CF911F910F91FF90EF90DF90CF9008955F
S1132450CF92EF92FF920F931F93CF93DF93EC01F0
S1132460EB8DFC8D60E679E0828593850E94720392
S1132470182F882309F46DC0EB8DFC8D84818A317B
S113248029F08A3219F0803209F062C068E572E0FE
S1132490848595850E948B03182F811109C06BECEC
S11324A075E083E297E00E94E91568E572E023C0D5
S11324B0EB8DFC8D848190E0BC016150710977FD46
S11324C0BC0175956795C12C58E5E52E52E0F52EB3
S11324D008E512E020EB34E043E0CE010E94A403BF
S11324E0182F81110DC06BEC75E083E297E00E9418
S11324F0E91565E772E083E297E00E94081629C0B7
S11325008F89988DA98DBA8D282F2F7737E0B695AE
S1132510A795979587953A95D1F7EB8DFC8D4085D6
S113252051854438534010F431E03E8B30E03A8B0F
S1132530298B90E0988B8F87248130E0C901019723
S113254097FDC901959587958D8B80E18E8701C094
S113255010E0812FDF91CF911F910F91FF90EF90A9
S1132560CF900895CF92EF92FF920F931F93CF9342
S1132570DF93DC015B96ED91FC915C97248124341C
S1132580F9F4EC016EEE72E0828593850E94720389
S1132590882351F0EB8DFC8D62E27BE08485958588
S11325A00E948B0381110EC068E873E083E297E018
S11325B00E94C51563E673E083E297E00E94F61576
S11325C010E02BC0CC24C3948EEEE82E82E0F82ECB
S11325D006E618E02EEE32E043E060E2CE010E940F
S11325E02A05882369F3EB8DFC8DE257FF4F6EEECD
S11325F072E0808191810E947203182F811107C0BB
S113260065E473E083E297E00E94F61506C080E873
S11326108E8B80E28D8B85E18E87812FDF91CF9128
S11326201F910F91FF90EF90CF90089580E090E07C
S113263008950895CF93DF93EC0160E08E810E94AA
S1132640961781E090E00E94EB1661E08E810E9473
S1132650961781E090E00E94EB1660E08E810E9464
S1132660961784E690E0DF91CF910C94EB16CF920D
S1132670DF92EF92FF920F931F93CF93DF936C013E
S11326807C0187E0E80EF11CC0E0D0E0062F10E0EA
S1132690B8010C2E02C0759567950A94E2F7617033
S11326A0F70181917F010E9496172196C430D105CC
S11326B079F7C601DF91CF911F910F91FF90EF90B1
S11326C0DF90CF900C941A13CF92DF92EF92FF9287
S11326D00F931F93CF93DF936C017C0187E0E80E87
S11326E0F11CC0E0D0E0062F10E0B8010C2E02C0AF
S11326F0759567950A94E2F76170F70181917F01FE
S11327000E9496172196C830D10579F7C601DF914A
S1132710CF911F910F91FF90EF90DF90CF900C9489
S11327201A131F93CF93DF93EC01162F642F8C8120
S11327300E9496178D818F3F19F060E00E949617D2
S11327408F85612F84FF06C0CE01DF91CF911F9149
S11327500C94641370E084E0759567958A95E1F7AD
S1132760CE010E943713612FCE01DF91CF911F91CB
S11327700C94371340E00C94911361E00E94BA1357
S113278080ED97E00C94EB16FC01443008F043E034
S11327908389481710F04FEF480FDF01A40FB11DD4
S11327A054969C91690F6068CF010C94BA13FC0194
S11327B06089262F2460208B6C600C94BA13EF92EE
S11327C0FF920F931F93CF93DF93EC01423018F0E5
S11327D08F8588608F874B8B1C8A80E48D8B6E8BF2
S11327E070E0605C7F4F6F8B222329F0413019F435
S11327F08F8584608F8761E08C810E945A178D8158
S11328008F3F19F061E00E945A1761E08E810E94A7
S11328105A177E0187E0E80EF11C00E010E08F8576
S113282084FD03C084E090E002C088E090E00817D3
S113283019074CF461E0F70181917F010E945A1756
S11328400F5F1F4FECCF80E593EC0E94EB1660E026
S11328508C810E94961760E08E810E9496178D816C
S11328608F3F19F060E00E9496176F8564FD1DC0CC
S113287063E0CE010E94371384E991E10E94EB16D4
S113288063E0CE010E94371384E991E10E94EB16C4
S113289063E0CE010E94371386E990E00E94EB16B4
S11328A062E0CE010E94371316C06062CE010E941E
S11328B0BA1384E991E10E94EB166F856062CE0140
S11328C00E94BA1386E990E00E94EB166F8560625D
S11328D0CE010E94BA136F856062CE010E94BA13C2
S11328E084E0888BCE010E94D713CE010E94BD13D1
S11328F082E0898B66E0CE01DF91CF911F910F9129
S1132900FF90EF900C94BA13CF92EF920F93FC01C7
S11329101382128286ED95E09183808364838FEF26
S11329208583468327830087E186C28613861486BF
S113293015861686178620E041E060E1CF010F91ED
S1132940EF90CF900C94DF1341E00E94911381E04B
S113295090E00895E89409C097FB3EF49095809523
S1132960709561957F4F8F4F9F4F9923A9F0F92F51
S113297096E9BB279395F695879577956795B795CF
S1132980F111F8CFFAF4BB0F11F460FF1BC06F5FB5
S11329907F4F8F4F9F4F16C0882311F096E911C0C7
S11329A0772321F09EE8872F762F05C0662371F0E8
S11329B096E8862F70E060E02AF09A95660F771FFC
S11329C0881FDAF7880F9695879597F908951F92CF
S11329D00F920FB60F9211242F938F939F93EF931F
S11329E0FF93E0913307F09134078081E091390738
S11329F0F0913A0782FD12C0908180913C078F5F6D
S1132A008F7320913D07821751F0E0913C07F0E06D
S1132A10ED5DF84F958F80933C0701C08081FF9155
S1132A20EF919F918F912F910F900FBE0F901F9058
S1132A3018951F920F920FB60F9211242F933F9364
S1132A404F935F936F937F938F939F93AF93BF93B2
S1132A50EF93FF9383E297E00E943918FF91EF917F
S1132A60BF91AF919F918F917F916F915F914F91A2
S1132A703F912F910F900FBE0F901F90189583E2F6
S1132A8097E00E94EE1721E0892B09F420E0822FC1
S1132A900895E3E2F7E01382128288EE93E0A0E067
S1132AA0B0E084839583A683B78381EF95E0918317
S1132AB0808385EC90E09587848784EC90E0978709
S1132AC0868780EC90E0918B808B81EC90E0938BF7
S1132AD0828B82EC90E0958B848B86EC90E0978BD4
S1132AE0868B118E128E138E148E089508950E9473
S1132AF0F6160E9476150E944708CBE2D8E10E94A0
S1132B006C082097E1F30E942B18F9CFCF92DF9243
S1132B10EF92FF920F931F93CF93DF936C017A018F
S1132B208B01C0E0D0E0CE15DF0581F0D8016D91B6
S1132B308D01D601ED91FC910190F081E02DC6014B
S1132B400995892B11F02196EECF7E01C701DF9103
S1132B50CF911F910F91FF90EF90DF90CF90089548
S1132B606115710579F0FB0101900020E9F73197B7
S1132B70AF01461B570BDC01ED91FC910280F38100
S1132B80E02D099480E090E00895EF92FF920F9376
S1132B901F93CF93DF938C017B01C0E0D0E0F7015A
S1132BA0EC0FFD1F6491662361F0D801ED91FC9157
S1132BB00190F081E02DC8010995892B11F021962F
S1132BC0EECFCE01DF91CF911F910F91FF90EF9047
S1132BD008950C94B015DC01ED91FC910190F08105
S1132BE0E02D09946EED75E00C94B0150F931F93CE
S1132BF0CF93DF93EC010E94C5158C01CE010E9496
S1132C00F215800F911FDF91CF911F910F910895BD
S1132C100F931F93CF93DF93EC010E94B0158C01A7
S1132C20CE010E94F215800F911FDF91CF911F9169
S1132C300F9108958F929F92AF92BF92EF92FF925D
S1132C400F931F93CF93DF93CDB7DEB7A1970FB642
S1132C50F894DEBF0FBECDBF7C01FA01CB0119A2EF
S1132C60223008F42AE08E010F5D1F4F822E912C32
S1132C70A12CB12CBF01A50194010E94EE18F90109
S1132C80CA01015011096A3010F4605D01C0695C29
S1132C90D8016C93232B242B252B61F7B801C70192
S1132CA00E94B015A1960FB6F894DEBF0FBECDBF3B
S1132CB0DF91CF911F910F91FF90EF90BF90AF9054
S1132CC09F908F9008952115310541F4DC01ED9119
S1132CD0FC910190F081E02D642F09940C941A1654
S1132CE09A01462F50E060E070E00C9463160F9355
S1132CF01F93CF93DF93EC010E9470168C01CE01D9
S1132D000E94F215800F911FDF91CF911F910F91B7
S1132D1008959A01AB0160E070E00C9463160F9380
S1132D201F93CF93DF93EC010E9489168C01CE018F
S1132D300E94F215800F911FDF91CF911F910F9187
S1132D4008951F920F920FB60F9211242F933F9361
S1132D508F939F93AF93BF938091C1079091C207C4
S1132D60A091C307B091C4073091C00723E0230F9B
S1132D702D3720F40196A11DB11D05C026E8230FAF
S1132D800296A11DB11D2093C0078093C1079093A3
S1132D90C207A093C307B093C4078091C50790915D
S1132DA0C607A091C707B091C8070196A11DB11D20
S1132DB08093C5079093C607A093C707B093C8072D
S1132DC0BF91AF919F918F913F912F910F900FBE23
S1132DD00F901F9018958230910538F0880F991F35
S1132DE0880F991F05970197F1F70895789484B592
S1132DF0826084BD84B5816084BD85B5826085BDF3
S1132E0085B5816085BDEEE6F0E0808181608083D8
S1132E10E1E8F0E0108280818260808380818160BB
S1132E208083E0E8F0E0808181608083E1EBF0E082
S1132E30808184608083E0EBF0E080818160808326
S1132E40EAE7F0E08081846080838081826080830F
S1132E508081816080838081806880831092C1003A
S1132E600895833081F028F4813099F08230A1F004
S1132E7008958730A9F08830B9F08430D1F4809176
S1132E8080008F7D03C0809180008F7780938000C5
S1132E90089584B58F7702C084B58F7D84BD08956D
S1132EA08091B0008F7703C08091B0008F7D8093B4
S1132EB0B0000895CF93DF9390E0FC01EA55FC4FF6
S1132EC02491FC01E654FC4F8491882361F190E045
S1132ED0880F991FFC01EE51FC4FC591D491FC0160
S1132EE0E852FC4FA591B491611109C09FB7F894C1
S1132EF08881209582238883EC912E230BC0623035
S1132F0061F49FB7F8948881322F309583238883A6
S1132F10EC912E2B2C939FBF06C08FB7F894E881B9
S1132F202E2B28838FBFDF91CF9108951F93CF93CA
S1132F30DF93282F30E0F901EE56FC4F8491F9011C
S1132F40EA55FC4FD491F901E654FC4FC491CC23CB
S1132F50C1F0162F81110E943117EC2FF0E0EE0F13
S1132F60FF1FE852FC4FA591B4919FB7F89411113B
S1132F7004C08C91D095D82302C0EC91DE2BDC9355
S1132F809FBFDF91CF911F910895CF93DF93282F97
S1132F9030E0F901EE56FC4F8491F901EA55FC4FFB
S1132FA0D491F901E654FC4FC491CC2391F08111E2
S1132FB00E943117EC2FF0E0EE0FFF1FE253FC4F9D
S1132FC0A591B491EC91ED2381E090E021F480E0AF
S1132FD002C080E090E0DF91CF910895FC01918DD3
S1132FE0228D892F90E0805C9F4F821B91098F7303
S1132FF099270895FC01918D828D981731F0828D67
S1133000E80FF11D858D90E008958FEF9FEF0895EF
S1133010FC01918D828D981761F0828DDF01A80FDC
S1133020B11D5D968C91928D9F5F9F73928F90E0FE
S113303008958FEF9FEF0895FC01538D448D252F44
S113304030E0842F90E0821B930B541710F0CF963E
S11330500895019708958FE395E1892B49F080E065
S113306090E0892B29F00E943F1581110C940000F7
S11330700895FC01848DDF01A80FB11DA35ABF4F31
S11330802C91848D90E001968F739927848FA68963
S1133090B7892C93A089B1898C91837080648C93B7
S11330A0938D848D981306C00288F389E02D808166
S11330B08F7D80830895EF92FF920F931F93CF9398
S11330C0DF93EC0181E0888F9B8D8C8D981305C074
S11330D0E889F989808185FD26C0F62E0B8D10E0E4
S11330E00F5F1F4F0F731127E02E8C8DE8120CC059
S11330F00FB607FCFACFE889F989808185FFF5CFFF
S1133100CE010E943918F1CF8B8DFE01E80FF11D1D
S1133110E35AFF4FF0829FB7F8940B8FEA89FB893B
S1133120808180620AC09FB7F894EE89FF8960832A
S1133130E889F98980818370806480839FBF81E0FE
S113314090E0DF91CF911F910F91FF90EF90089540
S1133150CF93DF93EC01888D8823C9F0EA89FB893A
S1133160808185FD05C0A889B9898C9186FD0FC031
S11331700FB607FCF5CF808185FFF2CFA889B98906
S11331808C9185FFEDCFCE010E943918E7CFDF91F6
S1133190CF910895DB018F939F930E941F19BF91D4
S11331A0AF91A29F800D911DA39F900DB29F900D92
S11331B011240895AA1BBB1B51E107C0AA1FBB1F02
S11331C0A617B70710F0A61BB70B881F991F5A95AF
S11331D0A9F780959095BC01CD010895A1E21A2E1E
S11331E0AA1BBB1BFD010DC0AA1FBB1FEE1FFF1FA7
S11331F0A217B307E407F50720F0A21BB30BE40BF7
S1133200F50B661F771F881F991F1A9469F760953D
S11332107095809590959B01AC01BD01CF010895F7
S1133220A29FB001B39FC001A39F700D811D112403
S1133230911DB29F700D811D1124911D08950E944E
S11332401019A59F900DB49F900DA49F800D911D02
S1133250112408950F93083090F0982F872F762F1C
S1133260652F542F432F322F22270850F4CF220FDB
S1133270331F441F551F661F771F881F991F0A9508
S1133280B2F70F910895EE0FFF1F0590F491E02D12
S10932900994F894FFCF3D
S11332964F766572666C6F772068617070656E65CF
S11332A664005468652066756E6374696F6E206485
S11332B665636F64652826726573756C7473292952
S11332C62069732064657072656361746564206146
S11332D66E64206D6179206E6F7420776F726B2037
S11332E6617320657870656374656421204A75731B
S11332F67420757365206465636F64652829202DC1
S113330620776974686F757420616E7920706172B4
S1133316616D657465722E00554E4B4E4F574E00C7
S1133326436F6469676F204C69646F206E6F205227
S113333665004C47004E45430050414E41534F4EA5
S11333464943004B415345494B594F004B41534563
S1133356494B594F5F4A5643004B415345494B59D4
S11333664F5F44454E4F4E004B415345494B594FD1
S11333765F5348415250004B415345494B594F5FA7
S11333864D49545355424953484900524335005216
S113339643360053414D53554E4700534F4E590043
S11333A64150504C4500424F534557415645004CF9
S11333B645474F5F5046004D414749515545535483
S11333C6005748594E54455200426F73653A2000DF
S11333D644617461206C656E6774683D002069738E
S11333E6206E6F74203336004865616465722073FD
S11333F670616365206C656E6774682069732077F5
S1133406726F6E67004465636F6465206661696CFC
S1133416656400436F6D6D616E6420616E6420693E
S11334266E76657274656420636F6D6D616E64207B
S1133436636865636B206661696C65640044656EE8
S11334466F6E3A20005468652066756E6374696F02
S11334566E2073656E6444656E6F6E286461746174
S11334662C206E62697473292069732064657072F6
S113347665636174656420616E64206D6179206E94
S11334866F7420776F726B20617320657870656343
S113349674656421205573652073656E6444656E96
S11334A66F6E52617728646174612C204E756D626B
S11334B665724F665265706561747329206F722058
S11334C66265747465722073656E6444656E6F6EAE
S11334D628416464726573732C20436F6D6D616E4D
S11334E6642C204E756D6265724F66526570656117
S11334F67473292E004B617365696B796F3A2000EA
S1133506486561646572206D61726B206C656E67D7
S113351674682069732077726F6E670056656E64EF
S11335266F72204944206465636F6465206661692F
S11335366C656400416464726573732C20636F6DFB
S11335466D616E64202B20706172697479206465E4
S1133556636F6465206661696C6564003420626922
S1133566742056656E646F724944205061726974A2
S113357679206973206E6F7420636F727265637449
S11335862E2065787065637465643D30780020721A
S1133596656365697665643D3078002056656E64BA
S11335A66F7249443D307800382062697420506156
S11335B672697479206973206E6F7420636F7272F6
S11335C66563742E2065787065637465643D307830
S11335D60020616464726573733D30780020636F04
S11335E66D6D616E643D307800615261774461743B
S11335F6613D3078004C45474F3A20002C207261DB
S1133606773D3078002C2033206E6962626C6573D6
S113361620617265203078002C20307800342062D6
S1133626697420636865636B73756D206973206EB6
S11336366F7420636F72726563742E20657870658B
S1133646637465643D30780020646174613D30784C
S1133656005468652066756E6374696F6E207365C1
S11336666E644C4728646174612C206E62697473BD
S113367629206973206465707265636174656420CA
S1133686616E64206D6179206E6F7420776F726B42
S113369620617320657870656374656421205573B1
S11336A6652073656E644C47526177286461746162
S11336B62C204E756D6265724F6652657065617435
S11336C67329206F72206265747465722073656E47
S11336D6644C4728416464726573732C20436F6D90
S11336E66D616E642C204E756D6265724F6652650F
S11336F67065617473292E004D6167695175657330
S1133706743A20006D61726B3D00207370616365CD
S11337163D0020726174696F3D004D415443485F1A
S11337264D41524B206661696C65640053616D734B
S1133736756E673A2000486561646572206D617232
S11337466B206F72207370616365206C656E67749D
S1133756682069732077726F6E6700536F6E793ACB
S1133766200000000000A4148615161319130D0A70
S1133776006E616E00696E66006F7666000000007A
S1133786005B1886151C18A818EE170818FA1700F7
S9030000FC
