:100000000C945C000C9479000C9479000C947900A9
:100010000C9479000C9479000C9479000C9479007C
:100020000C9479000C9479000C9479000C9479006C
:100030000C9479000C9479000C9479000C9479005C
:100040000C9425010C9479000C9479000C9479009F
:100050000C9479000C9479000C9479000C9479003C
:100060000C9479000C947900000000080002010053
:100070000003040700000000000000000102040863
:100080001020408001020408102001020408102002
:10009000040404040404040402020202020203032E
:1000A0000303030300000000250028002B000000CC
:1000B0000000240027002A0011241FBECFEFD8E043
:1000C000DEBFCDBF11E0A0E0B1E0E4E4F5E002C0A6
:1000D00005900D92A431B107D9F721E0A4E1B1E078
:1000E00001C01D92A132B207E1F70E9416010C94E3
:1000F000A0020C94000061E08DE00E94340261E0F7
:100100008CE00E94340261E08BE00E94340261E0E6
:100110008AE00E94340261E089E00E94340261E0DA
:1001200088E00C943402CF92DF92EF92FF920F930B
:100130001F93CF93DF93CDB7DEB72C970FB6F8940C
:10014000DEBF0FBECDBF6C018CE0E7E0F1E0DE0169
:10015000119601900D928A95E1F78E010F5F1F4F66
:10016000E12CF12CF80180810E5F1F4FB6010E2C9F
:1001700002C0769567950A94E2F7617077270E942E
:100180007002FFEFEF1AFF0A86E0E816F10451F75C
:100190002C960FB6F894DEBF0FBECDBFDF91CF9186
:1001A0001F910F91FF90EF90DF90CF900895909165
:1001B00006018091050189238093170190E00E9438
:1001C000930060E27EE480E090E00E9494019091D0
:1001D000040180910301892B8093160190E00E9415
:1001E000930068E97AE380E090E00E9494019091A6
:1001F00002018091010189278093150190E00E94FE
:10020000930060E177E280E090E00E9494018091A9
:10021000000180958093140190E00E94930068E8AB
:1002200073E180E090E00C94940108950E94D00165
:100230000E9415010E947B00C0E0D0E00E94D70020
:100240002097E1F30E940000F9CF1F920F920FB6A2
:100250000F9211242F933F938F939F93AF93BF934C
:100260008091190190911A01A0911B01B0911C017C
:100270003091180123E0230F2D3720F40196A11DA2
:10028000B11D05C026E8230F0296A11DB11D2093C4
:1002900018018093190190931A01A0931B01B09348
:1002A0001C0180911D0190911E01A0911F01B09130
:1002B00020010196A11DB11D80931D0190931E0187
:1002C000A0931F01B0932001BF91AF919F918F9197
:1002D0003F912F910F900FBE0F901F9018953FB731
:1002E000F89480911D0190911E01A0911F01B09181
:1002F000200126B5A89B05C02F3F19F00196A11D2E
:10030000B11D3FBFBA2FA92F982F8827820F911DAB
:10031000A11DB11DBC01CD0142E0660F771F881FF2
:10032000991F4A95D1F708958F929F92AF92BF92ED
:10033000CF92DF92EF92FF926B017C010E946F01DE
:100340004B015C01C114D104E104F10401F10E94EC
:100350009F020E946F01DC01CB0188199909AA094B
:10036000BB09883E9340A105B10560F321E0C21AA4
:10037000D108E108F10888EE880E83E0981EA11CE0
:10038000B11CC114D104E104F10419F7DBCFFF90D3
:10039000EF90DF90CF90BF90AF909F908F90089597
:1003A000789484B5826084BD84B5816084BD85B550
:1003B000826085BD85B5816085BDEEE6F0E0808117
:1003C00081608083E1E8F0E0108280818260808338
:1003D000808181608083E0E8F0E0808181608083BB
:1003E000E1EBF0E0808184608083E0EBF0E08081ED
:1003F00081608083EAE7F0E080818460808380818F
:100400008260808380818160808380818068808336
:100410001092C1000895833081F028F4813099F062
:100420008230A1F008958730A9F08830B9F0843087
:10043000D1F4809180008F7D03C0809180008F7700
:1004400080938000089584B58F7702C084B58F7D36
:1004500084BD08958091B0008F7703C08091B00073
:100460008F7D8093B0000895CF93DF9390E0FC01DF
:10047000E458FF4F2491FC01E057FF4F84918823FB
:1004800061F190E0880F991FFC01E255FF4FC59183
:10049000D491FC01EC55FF4FA591B491611109C0B5
:1004A0009FB7F8948881209582238883EC912E232E
:1004B0000BC0623061F49FB7F8948881322F309579
:1004C00083238883EC912E2B2C939FBF06C08FB77C
:1004D000F894E8812E2B28838FBFDF91CF91089568
:1004E0001F93CF93DF93282F30E0F901E859FF4F96
:1004F0008491F901E458FF4FD491F901E057FF4F7F
:10050000C491CC23C1F0162F81110E940B02EC2F55
:10051000F0E0EE0FFF1FEC55FF4FA591B4919FB790
:10052000F894111104C08C91D095D82302C0EC919D
:10053000DE2BDC939FBFDF91CF911F91089508952B
:04054000F894FFCF5D
:1005440031332D1731332D0D000C000B000A000937
:04055400000800009B
:00000001FF
